:100000000C9436000C945E000C945E000C945E0020
:100010000C945E000C945E000C945E000C945E00E8
:100020000C945E000C945E000C945E000C945E00D8
:100030000C945E000C945E000C945E000C945E00C8
:100040000C9427050C945E000C94AE010C94FC01FA
:100050000C945E000C945E000C945E000C945E00A8
:100060000C945E000C945E003A01680311241FBEDC
:10007000CFEFD4E0DEBFCDBF11E0A0E0B1E0E6EE0F
:10008000FCE002C005900D92A032B107D9F711E053
:10009000A0E2B1E001C01D92A93FB107E1F710E075
:1000A000CCE6D0E004C02297FE010E946D06C8365F
:1000B000D107C9F70E9418050C9471060C94000032
:1000C0001F93CF93DF93FC01EB01122F808191816D
:1000D0008617970794F182819381841795076CF1B5
:1000E00084819581489F9001499F300D589F300D24
:1000F0001124CB0168E070E00E942206260F371F12
:100100000680F781E02DE20FF31FCE0168E070E07A
:100110000E94220627E030E0281B390B81E090E0A6
:1001200002C0880F991F2A95E2F72081112311F050
:10013000282B02C0809528232083DF91CF911F9127
:100140000895CF93DF93FC01EB01808191818617A5
:1001500097075CF1828193818417950734F184813C
:100160009581489F9001499F300D589F300D112473
:10017000CB0168E070E00E9422060680F781E02D46
:10018000E20FF31FE60FF71F208130E0CE0168E099
:1001900070E00E94220602C0220F331F8A95E2F708
:1001A000822F881F8827881F01C080E0DF91CF91B0
:1001B0000895FC01808191810895FC0182819381E1
:1001C0000895CF92DF92EF92FF920F931F93CF93F8
:1001D000DF937C01C62ED42E00E010E01DC0C701C5
:1001E000BE01A8010E94A100882311F46D2D01C059
:1001F0006C2D8EEC91E00E94E8032196F70180813E
:100200009181C817D9075CF38EEC91E060E071E052
:100210000E9405050F5F1F4FF70182819381081728
:1002200019071CF4C0E0D0E0E9CFDF91CF911F9116
:100230000F91FF90EF90DF90CF900895FC0166231F
:1002400011F480E001C08FEF0680F781E02D8083FC
:1002500008950F931F93FC0171836083538342833E
:10026000358324831783068360E00E941E011F915B
:100270000F9108950F931F938EE391E064E170E076
:100280004AE050E023E030E000E211E00E94290162
:100290001F910F910895EF92FF920F931F93CF93A9
:1002A000DF93FF24F394EE24E39400E010E03DC0DC
:1002B0008EEC91E061E071E00E9402058EEC91E02D
:1002C000BE014AE050E00E94D0048EEC91E069E06B
:1002D00071E00E9402058EEC91E0B8014AE050E026
:1002E0000E94E3048EE391E0BE01A8012F2D0E943D
:1002F00060008EE391E068E54EE20E94E1008EEC42
:1003000091E06FE071E00E94050564E670E080E036
:1003100090E00E946F0521968EE391E00E94D90043
:10032000C817D9072CF20F5F1F4F8EE391E00E9490
:10033000DD00081719071CF4C0E0D0E0EDCFFE2463
:10034000B4CF0E944B0108958EEC91E040E855E255
:1003500060E070E00E943702089508951F920F92A6
:100360000FB60F9211242F933F934F938F939F9328
:10037000EF93FF938091C00082FD1DC04091C600A5
:1003800020918601309187012F5F3F4F2F7330708E
:1003900080918801909189012817390771F0E091C7
:1003A0008601F0918701EA5BFE4F4083309387011D
:1003B0002093860102C08091C600FF91EF919F912A
:1003C0008F914F913F912F910F900FBE0F901F90E3
:1003D0001895E091DA01F091DB01E05CFF4F81912B
:1003E000919120813181821B930B8F739070892BA7
:1003F00011F00E94AD0108951F920F920FB60F9257
:1004000011242F933F938F939F93EF93FF9320910A
:10041000CA013091CB018091CC019091CD01281778
:10042000390731F48091C1008F7D8093C10014C0E1
:10043000E091CC01F091CD01E657FE4F20818091F3
:10044000CC019091CD0101968F7390709093CD0166
:100450008093CC012093C600FF91EF919F918F91E3
:100460003F912F910F900FBE0F901F901895AF9254
:10047000BF92DF92EF92FF920F931F93CF93DF9380
:10048000EC017A018B01DD24403081EE580780E0D9
:10049000680780E0780711F0DD24D39491E0A92E5D
:1004A000B12CEC89FD89DD2069F0C50108A002C0EE
:1004B000880F991F0A94E2F7808360E079E08DE36A
:1004C00090E005C0108260E874E88EE190E0A80139
:1004D00097010E94350621503040404050405695CB
:1004E00047953795279580E12030380720F0DD20AB
:1004F00011F0DD24D6CFE889F9893083EA89FB89B8
:10050000208319A2EE89FF89408121E030E0C901F2
:100510000C8C02C0880F991F0A94E2F7482B408385
:10052000EE89FF894081C9010D8C02C0880F991F97
:100530000A94E2F7482B4083EE89FF894081C90184
:100540000E8C02C0880F991F0A94E2F7482B408353
:10055000EE89FF8980810F8C02C0220F331F0A941D
:10056000E2F7209528232083DF91CF911F910F91EF
:10057000FF90EF90DF90BF90AF900895DC011C9644
:10058000ED91FC911D97E05CFF4F219131918081AD
:100590009181281B390B2F733070C9010895DC013C
:1005A0001C96ED91FC911D97E05CFF4F20813181FD
:1005B000E054F040DF01AE5BBF4F8D919C911197ED
:1005C0002817390719F42FEF3FEF07C08D919C9141
:1005D000E80FF91F8081282F30E0C9010895DC0160
:1005E0001C96ED91FC911D97E05CFF4F20813181BD
:1005F000E054F040DF01AE5BBF4F8D919C911197AD
:100600002817390719F42FEF3FEF10C08D919C91F7
:100610001197E80FF91F20818D919C9111970196F8
:100620008F73907011969C938E9330E0C90108955A
:10063000DC0191968C919197882339F05496ED9135
:10064000FC915597808186FFF9CF91961C92089571
:10065000CF93DF93EC01EE85FF85E05CFF4F2081B7
:100660003181E054F0402F5F3F4F2F733070DF0136
:10067000AE5BBF4F8D919C91119728173907D1F32D
:10068000E05CFF4F80819181E054F040E80FF91F5A
:100690006083EE85FF85E05CFF4F31832083EE8928
:1006A000FF89208181E090E00F8C02C0880F991FA4
:1006B0000A94E2F7282B208381E089A3EC89FD8945
:1006C00080818064808381E090E0DF91CF91089504
:1006D0001092D1011092D00188EE93E0A0E0B0E03A
:1006E0008093D2019093D301A093D401B093D5010C
:1006F00084E191E09093CF018093CE0186E491E074
:100700009093DB018093DA018AE891E09093DD0118
:100710008093DC0185EC90E09093DF018093DE0113
:1007200084EC90E09093E1018093E00180EC90E014
:100730009093E3018093E20181EC90E09093E501D6
:100740008093E40182EC90E09093E7018093E601CE
:1007500086EC90E09093E9018093E80184E0809337
:10076000EA0183E08093EB0187E08093EC0185E070
:100770008093ED0181E08093EE010895CF92DF92A6
:10078000EF92FF920F931F93CF93DF937C016B0146
:100790008A01C0E0D0E00FC0D6016D916D01D70194
:1007A000ED91FC910190F081E02DC7010995C80FF2
:1007B000D91F015010400115110571F7CE01DF91CD
:1007C000CF911F910F91FF90EF90DF90CF90089500
:1007D000DC01ED91FC910190F081E02D09950895E7
:1007E000EF92FF920F931F938C01DC01ED91FC912E
:1007F0000190F081E02D6DE009957C01D801ED912B
:10080000FC910190F081E02DC8016AE009959C01FE
:100810002E0D3F1DC9011F910F91FF90EF9008957C
:10082000CF93DF93EC016115710519F420E030E0FE
:100830000FC0DB010D900020E9F71197A61BB70B45
:10084000E881F9810280F381E02DAD0109959C01D9
:10085000C901DF91CF9108954F925F927F928F925D
:100860009F92AF92BF92CF92DF92EF92FF920F933F
:100870001F93DF93CF93CDB7DEB7A1970FB6F89450
:10088000DEBF0FBECDBF2C01742ECB01223008F489
:100890002AE019A231E2C32ED12CCC0EDD1E822E0D
:1008A0009924AA24BB24672D752FA50194010E94C9
:1008B000350679018A01C801B701A50194010E949A
:1008C0000306472D461B0894C108D1084A3014F48A
:1008D000405D01C0495CF6014083E114F10401056B
:1008E000110521F07E2C5F2DC801DDCFC201B601BC
:1008F0000E941004A1960FB6F894DEBF0FBECDBFC4
:10090000CF91DF911F910F91FF90EF90DF90CF90EB
:10091000BF90AF909F908F907F905F904F90089581
:10092000CF92DF92EF92FF920F931F93CF93DF93BB
:10093000EC016A017B012115310541F4E881F9815F
:100940000190F081E02D642F09951FC02A303105F8
:10095000D1F477FF17C0E881F9810190F081E02D93
:100960006DE209958C0144275527BA014C195D09A0
:100970006E097F09CE012AE00E942C049801280FFD
:10098000391F04C02AE00E942C049C01C901DF9198
:10099000CF911F910F91FF90EF90DF90CF9008952E
:1009A000EF92FF920F931F937B019A010027F7FCB0
:1009B0000095102FB801A7010E9490041F910F917C
:1009C000FF90EF900895CF92DF92EF92FF920F93F6
:1009D0001F936C017B019A010027F7FC0095102FF3
:1009E000B801A7010E9490048C01C6010E94F00387
:1009F000080F191FC8011F910F91FF90EF90DF9012
:100A0000CF9008950E9410040895EF92FF920F93E3
:100A10001F937C010E9410048C01C7010E94F00307
:100A2000080F191FC8011F910F91FF90EF900895B3
:100A3000CF93DF930E94C8050E94A401C9EED1E0C4
:100A40000E94A1012097E1F30E94E901F9CF1F92D2
:100A50000F920FB60F9211242F933F938F939F9372
:100A6000AF93BF938091F4019091F501A091F601AD
:100A7000B091F7013091F8010196A11DB11D232F0E
:100A80002D5F2D3720F02D570196A11DB11D20930C
:100A9000F8018093F4019093F501A093F601B093CF
:100AA000F7018091F0019091F101A091F201B091D4
:100AB000F3010196A11DB11D8093F0019093F10106
:100AC000A093F201B093F301BF91AF919F918F91E9
:100AD0003F912F910F900FBE0F901F9018959B0183
:100AE000AC017FB7F8948091F0019091F101A09151
:100AF000F201B091F30166B5A89B05C06F3F19F0F4
:100B00000196A11DB11D7FBFBA2FA92F982F88274D
:100B1000860F911DA11DB11D62E0880F991FAA1FAC
:100B2000BB1F6A95D1F7BC012DC0FFB7F894809127
:100B3000F0019091F101A091F201B091F301E6B5BD
:100B4000A89B05C0EF3F19F00196A11DB11DFFBF85
:100B5000BA2FA92F982F88278E0F911DA11DB11D87
:100B6000E2E0880F991FAA1FBB1FEA95D1F7861BE9
:100B7000970B885E9340C8F221503040404050406F
:100B800068517C4F211531054105510571F60895D5
:100B9000789484B5826084BD84B5816084BD85B558
:100BA000826085BD85B5816085BDEEE6F0E080811F
:100BB00081608083E1E8F0E0108280818260808340
:100BC000808181608083E0E8F0E0808181608083C3
:100BD000E1EBF0E0808184608083E0EBF0E08081F5
:100BE00081608083EAE7F0E0808184608083808197
:100BF000826080838081816080838081806880833F
:100C00001092C1000895629FD001739FF001829FEE
:100C1000E00DF11D649FE00DF11D929FF00D839F8B
:100C2000F00D749FF00D659FF00D9927729FB00D28
:100C3000E11DF91F639FB00DE11DF91FBD01CF013B
:100C40001124089597FB092E07260AD077FD04D0BA
:100C50002ED006D000201AF4709561957F4F08952C
:100C6000F6F7909581959F4F0895A1E21A2EAA1B41
:100C7000BB1BFD010DC0AA1FBB1FEE1FFF1FA2174C
:100C8000B307E407F50720F0A21BB30BE40BF50B49
:100C9000661F771F881F991F1A9469F760957095D2
:100CA000809590959B01AC01BD01CF010895AA1BD1
:100CB000BB1B51E107C0AA1FBB1FA617B70710F047
:100CC000A61BB70B881F991F5A95A9F78095909579
:100CD000BC01CD010895EE0FFF1F0590F491E02DAA
:060CE0000994F894FFCF17
:100CE6000053657420783A20002C20793A200000C1
:100CF600000000002803BE03BE02EF02CF02180365
:00000001FF
