:100000000C94F7000C941F010C941F010C941F0119
:100010000C941F010C941F010C941F010C941F01E0
:100020000C941F010C941F010C941F010C941F01D0
:100030000C941F010C941F010C941F010C941F01C0
:100040000C948A080C941F010C94E6050C94340659
:100050000C941F010C941F010C941F010C941F01A0
:100060000C941F010C941F016660060024600600BA
:10007000636C0300F0F000006C630C000692060055
:100080005693060046440600214608002622060034
:10009000009006000F00000000620C0042420200C7
:1000A0006666060024240400B00D0000D6B90600E0
:1000B000276202008F170E001F170F00119F090003
:1000C0001F8E0F009F8F070024120F009F960F00B6
:1000D000119F0F00DDDF0600DEDF0E00D6DC06001C
:1000E000DEDD0E00CFCE0F00CCCE0F00D7CF070045
:1000F000DDDF0D006F660F00BF330F00DDDE0D008A
:10010000CFCC0C0099FF0900B9DF0900D6DD06004D
:10011000CCDF0E00A7990600EDDD0E001ECF070014
:1001200066660F00D6DD0D0052DD0D00F699090060
:10013000699609002C970900CF360F00999F060099
:100140009E9F0E00969806009E990E008F8E0F00BF
:10015000888E0F00978B0700999F09004F440F006E
:10016000AE220F00A9AC09008F88080099FF090092
:10017000B9DF090096990600889F0E00A79906002E
:10018000E9990E001E8F070044440F00969909005C
:1001900052990900F6990900699609002C970900FF
:1001A0004F120F0000000000026606000055050017
:1001B000F5F505005EAF07004D260B00BD5E07009C
:1001C000002406004244020024220400A0A40000EF
:1001D000404E000024060000000F000066000000F2
:1001E000482601005A5A0A003F04A0073804112487
:1001F0001FBECFEFD4E0DEBFCDBF11E0A0E0B1E085
:10020000E4E9F3E102C005900D92A436B107D9F7F5
:1002100012E0A4E6B1E001C01D92A13BB107E1F7F5
:1002200011E0CCEED1E004C02297FE010E94B1099A
:10023000C83ED107C9F70E9477080C94BD090C94F9
:100240000000CF93DF93BC018230910510F462E08F
:1002500070E0A091AF02B091B002ED01E0E0F0E0FB
:1002600040E050E021C0888199818617970769F4A2
:100270008A819B81309719F09383828304C0909385
:10028000B0028093AF02FE0134C06817790738F4DA
:100290004115510519F08417950708F4AC01FE01CA
:1002A0008A819B819C01E9012097E9F6411551055E
:1002B000A9F1CA01861B970B049708F4BA01E0E084
:1002C000F0E02AC08D919C91119784179507F9F45D
:1002D0006417750781F412968D919C91139730974E
:1002E00019F09383828304C09093B0028093AF028D
:1002F000FD0132964CC0CA01861B970BFD01E80F29
:10030000F91F6193719302978D939C9340C0FD01F7
:10031000828193819C01D9011097A1F68091AD0251
:100320009091AE02892B41F48091100190911101BE
:100330009093AE028093AD0240911201509113014F
:100340004115510541F44DB75EB780910E01909172
:100350000F01481B590B2091AD023091AE02CA012A
:10036000821B930B8617970780F0AB014E5F5F4FA0
:100370008417950750F0420F531F5093AE024093DD
:10038000AD02F9016193719302C0E0E0F0E0CF01AA
:10039000DF91CF910895CF93DF93009709F450C078
:1003A000EC0122971B821A82A091AF02B091B00299
:1003B000109709F140E050E0AC17BD0708F1BB838E
:1003C000AA83FE0121913191E20FF31FAE17BF07FF
:1003D00079F48D919C911197280F391F2E5F3F4F13
:1003E0003983288312968D919C9113979B838A83DE
:1003F0004115510571F4D093B002C093AF0220C0F3
:1004000012968D919C911397AD01009711F0DC012C
:10041000D3CFFA01D383C28321913191E20FF31F2D
:10042000CE17DF0769F488819981280F391F2E5F65
:100430003F4FFA01318320838A819B81938382839A
:10044000DF91CF910895DC0101C06D934150504080
:10045000E0F70895FC01D90180819181681779073F
:10046000A4F577FD32C082819381481759076CF556
:1004700057FD2BC0848195819C01429FC001439F01
:10048000900D529F900D11249B0143E035952795C7
:100490004A95E1F7820F931F0680F781E02DE80F60
:1004A000F91F609570956770707081E090E002C0F0
:1004B000880F991F6A95E2F72081119719F4282B6C
:1004C000208308958095282320830895FC0180814E
:1004D0009181681779074CF477FD07C08281938179
:1004E0004817590714F457FF03C080859185089574
:1004F000848195819C01429FC001439F900D529F32
:10050000900D11249B0153E0359527955A95E1F7FD
:100510000680F781E02DE80FF91FE20FF31F8081BD
:1005200090E06770707002C0880F991F6A95E2F7BB
:10053000881F8827881F90E008954130510511F0E9
:1005400040E001C04FEFCB01642F70E0A9010E9491
:10055000230208952F923F924F925F926F927F9263
:100560008F929F92AF92BF92CF92DF92EF92FF92C3
:100570000F931F93DF93CF9300D00F92CDB7DEB7C9
:100580005C017B836A832A0179011801DC01ED910A
:10059000FC911197E617F7070CF4B5C057FDB3C0EF
:1005A00012968D919C911397481759070CF0ABC088
:1005B0002115310509F4A7C037FF09C0F094E19473
:1005C000F108F394AB014E195F095B834A838A817A
:1005D0009B8197FF06C0E80EF91EF7FC94C01B82B2
:1005E0001A828A819B818E0D9F1DE817F9072CF4D2
:1005F0007F01AA81BB81EA1AFB0A2A813B8127700D
:100600003070622E8A809B808E0C9F1CC40168E033
:1006100070E00E9466098983222359F4B8E0EB1642
:10062000F1043CF07724E815F90524F0772473945D
:100630001AC0772400E010E0B8E0CB2ED12CC61809
:10064000D1080BC06A817B81600F711FC501A201B7
:1006500091010E942A020F5F1F4F0E151F051CF407
:100660000C151D057CF3062D10E0E981CE2EDD244E
:10067000C80108978E0D9F1D8C199D0968E070E0D8
:100680000E946609262F270D19F14A815B81495F77
:100690005F4FA3E055954795AA95E1F7D5011496CC
:1006A0008D919C911597FC014E9EC0014F9E900D1F
:1006B0005E9E900D1124840F951F16966D917C916E
:1006C0001797680F791FC501A10130E00E949D02B4
:1006D000F981FF23C1F00E0D1F1D093011059CF09B
:1006E0007401EC18FD0800E010E00AC0B8016E0DBE
:1006F0007F1DC501A20191010E942A020F5F1F4FB9
:100700000C151D059CF30F900F900F90CF91DF916A
:100710001F910F91FF90EF90DF90CF90BF90AF901F
:100720009F908F907F906F905F904F903F902F9011
:100730000895CF92DF92EF92FF920F931F93CF9382
:10074000DF937C016B01C0E0D0E00BC0F70120819A
:100750003181C70160E070E0AE0186010E94AA020B
:100760002196F70182819381C817D9077CF3DF9125
:10077000CF911F910F91FF90EF90DF90CF90089550
:100780000F931F93FC0171836083538342833583EE
:100790002483178306831186108660E070E00E9430
:1007A00099031F910F910895CF92DF92EF92FF92DC
:1007B0000F931F93CF93DF937C01C62ED42E00E0BE
:1007C00010E01DC0C701BE01A8010E94660201978A
:1007D00011F06D2D01C06C2D82E892E00E9420087E
:1007E0002196F70180819181C817D9075CF382E8CF
:1007F00092E060E071E00E9464080F5F1F4FF70114
:1008000082819381081719071CF4C0E0D0E0E9CF7A
:10081000DF91CF911F910F91FF90EF90DF90CF90DC
:1008200008950F931F9381309105B1F46F5F7F4F4F
:10083000E1F486EE91E064E670E04AE050E02DE0FD
:1008400030E004E611E00E94C00380EF91E066EE24
:1008500071E00E94D40509C0892B39F46F5F7F4F86
:1008600021F480EF91E00E94BA051F910F91089545
:1008700080E090E06FEF7FEF0E941104089581E027
:1008800090E06FEF7FEF0E941104089582E892E0FC
:1008900040E855E260E070E00E946F060895CF9353
:1008A000DF9380EF91E061E070E00E94A604CAEF60
:1008B000DFEF86EE91E060E070E00E94990380EF48
:1008C00091E061E070E0AE0121E031E00E94C504FA
:1008D00086EE91E060E44EE20E94D40382E892E06A
:1008E0006DE071E00E9464086EEE72E080E090E0DE
:1008F0000E94D2082196CB30D105D9F6DF91CF9155
:1009000008950E944F040895FC0188E191E09183CD
:100910008083738362831482158281E090E09783E1
:100920008683118610860895FC0188E191E0918309
:1009300080830895FC0188E191E09183808308958C
:10094000FC0184810895FC0164830895FC01778390
:1009500066830895FC01868197810895FC01718763
:1009600060870895FC0185810895FC0165830895E1
:10097000FC01808591850895FC0188E191E09183D7
:100980008083CF010E9487080895CF92DF92EF9273
:10099000FF920F931F93CF93DF938C017B016A012A
:1009A000E90111C0D801ED91FC910480F581E02DA1
:1009B000C801B701A60109952196F801858190E04B
:1009C0000496E80EF91E2881222361F7DF91CF916A
:1009D0001F910F91FF90EF90DF90CF90089585E0E9
:1009E000089584E00895CF93DF93EC01862F992733
:1009F00087FD909560536A3040F4FC01EE0FFF1FB5
:100A0000EE0FFF1FE451F0405BC00E94B509282F94
:100A100081548A31B8F488859985332727FD30952C
:100A2000019741F4F901EE0FFF1FEE0FFF1FE05396
:100A3000F04046C0F901EE0FFF1FEE0FFF1FE85C0C
:100A4000FF4F3EC0822F8052803158F4E22FFF27A3
:100A5000E7FDF095EE0FFF1FEE0FFF1FEC5DFE4F61
:100A60002FC0822F8A53873058F4E22FFF27E7FDEB
:100A7000F095EE0FFF1FEE0FFF1FE058F04020C073
:100A8000822F8B55863058F4E22FFF27E7FDF09533
:100A9000EE0FFF1FEE0FFF1FE85EF04011C0822F28
:100AA0008B57843058F4E22FFF27E7FDF095EE0FC7
:100AB000FF1FEE0FFF1FE055F14002C0E4EEF1E032
:100AC0002591359145915491B901CA01DF91CF919A
:100AD00008954F925F926F927F928F929F92AF9202
:100AE000BF92CF92DF92EF92FF920F931F93CF931B
:100AF000DF935C012B013A01622F0E94F3047B011A
:100B00008C01E4E0CE2ED12C1EC0E0FE0BC0BE0155
:100B1000640D751DF5012681378182819381A401C1
:100B20000E942A0216950795F794E7942197FFEF04
:100B3000CF3FDF0751F70894C108D1088FEFC816DF
:100B40008FEFD80631F0C3E0D0E04601860C971C49
:100B5000DCCFDF91CF911F910F91FF90EF90DF904D
:100B6000CF90BF90AF909F908F907F906F905F904D
:100B70004F900895FC0188E391E091838083CF0139
:100B80000E94940408950F931F938C0188E391E0D1
:100B9000F80191838083C8010E949404C8010E94D7
:100BA00087081F910F9108950F931F938C010E9446
:100BB000840488E391E0F8019183808386E0848354
:100BC00082E085831F910F91089508951F920F92DF
:100BD0000FB60F9211242F933F934F938F939F93B0
:100BE000EF93FF938091C00082FD1DC04091C6002D
:100BF00020913A0230913B022F5F3F4F2F733070AC
:100C000080913C0290913D022817390771F0E091E4
:100C10003A02F0913B02E650FE4F408330933B0294
:100C200020933A0202C08091C600FF91EF919F91FC
:100C30008F914F913F912F910F900FBE0F901F906A
:100C40001895E0918E02F0918F02E05CFF4F819148
:100C5000919120813181821B930B8F739070892B2E
:100C600011F00E94E50508951F920F920FB60F92A2
:100C700011242F933F938F939F93EF93FF93209192
:100C80007E0230917F02809180029091810228172C
:100C9000390731F48091C1008F7D8093C10014C069
:100CA000E0918002F0918102E25CFD4F2081809111
:100CB00080029091810201968F73907090938102CF
:100CC000809380022093C600FF91EF919F918F91B6
:100CD0003F912F910F900FBE0F901F901895AF92DC
:100CE000BF92DF92EF92FF920F931F93CF93DF9308
:100CF000EC017A018B01DD24403081EE580780E061
:100D0000680780E0780711F0DD24D39491E0A92EE4
:100D1000B12CEC89FD89DD2069F0C50108A002C075
:100D2000880F991F0A94E2F7808360E079E08DE3F1
:100D300090E005C0108260E874E88EE190E0A801C0
:100D400097010E947909215030404040504056950B
:100D500047953795279580E12030380720F0DD2032
:100D600011F0DD24D6CFE889F9893083EA89FB893F
:100D7000208319A2EE89FF89408121E030E0C9017A
:100D80000C8C02C0880F991F0A94E2F7482B40830D
:100D9000EE89FF894081C9010D8C02C0880F991F1F
:100DA0000A94E2F7482B4083EE89FF894081C9010C
:100DB0000E8C02C0880F991F0A94E2F7482B4083DB
:100DC000EE89FF8980810F8C02C0220F331F0A94A5
:100DD000E2F7209528232083DF91CF911F910F9177
:100DE000FF90EF90DF90BF90AF900895DC011C96CC
:100DF000ED91FC911D97E05CFF4F21913191808135
:100E00009181281B390B2F733070C9010895DC01C3
:100E10001C96ED91FC911D97E05CFF4F2081318184
:100E2000E054F040DF01AE5BBF4F8D919C91119774
:100E30002817390719F42FEF3FEF07C08D919C91C8
:100E4000E80FF91F8081282F30E0C9010895DC01E7
:100E50001C96ED91FC911D97E05CFF4F2081318144
:100E6000E054F040DF01AE5BBF4F8D919C91119734
:100E70002817390719F42FEF3FEF10C08D919C917F
:100E80001197E80FF91F20818D919C911197019680
:100E90008F73907011969C938E9330E0C9010895E2
:100EA000DC0191968C919197882339F05496ED91BD
:100EB000FC915597808186FFF9CF91961C920895F9
:100EC000CF93DF93EC01EE85FF85E05CFF4F20813F
:100ED0003181E054F0402F5F3F4F2F733070DF01BE
:100EE000AE5BBF4F8D919C91119728173907D1F3B5
:100EF000E05CFF4F80819181E054F040E80FF91FE2
:100F00006083EE85FF85E05CFF4F31832083EE89AF
:100F1000FF89208181E090E00F8C02C0880F991F2B
:100F20000A94E2F7282B208381E089A3EC89FD89CC
:100F300080818064808381E090E0DF91CF9108958B
:100F4000109285021092840288EE93E0A0E0B0E057
:100F50008093860290938702A0938802B0938902BF
:100F600088E591E090938302809382028AEF91E07A
:100F700090938F0280938E028EE392E09093910281
:100F80008093900285EC90E090939302809392027C
:100F900084EC90E0909395028093940280EC90E032
:100FA000909397028093960281EC90E0909399023F
:100FB0008093980282EC90E090939B0280939A0237
:100FC00086EC90E090939D0280939C0284E0809355
:100FD0009E0283E080939F0287E08093A00285E0D9
:100FE0008093A10281E08093A2020895CF92DF92C4
:100FF000EF92FF920F931F93CF93DF937C016B01CE
:101000008A01C0E0D0E00FC0D6016D916D01D7011B
:10101000ED91FC910190F081E02DC7010995C80F79
:10102000D91F015010400115110571F7CE01DF9154
:10103000CF911F910F91FF90EF90DF90CF90089587
:10104000DC01ED91FC910190F081E02D099508956E
:10105000EF92FF920F931F938C01DC01ED91FC91B5
:101060000190F081E02D6DE009957C01D801ED91B2
:10107000FC910190F081E02DC8016AE009959C0186
:101080002E0D3F1DC9011F910F91FF90EF90089504
:10109000CF93DF93EC016115710519F420E030E086
:1010A0000FC0DB010D900020E9F71197A61BB70BCD
:1010B000E881F9810280F381E02DAD0109959C0161
:1010C000C901DF91CF910895EF92FF920F931F9383
:1010D0007C010E9448088C01C7010E942808080F63
:1010E000191FC8011F910F91FF90EF900895CF93A2
:1010F000DF930E942B090E944604C1E2D6E00E94C1
:1011000081042097E1F30E942106F9CF08950E94FF
:10111000CB0108951F920F920FB60F9211242F93B7
:101120003F938F939F93AF93BF938091A802909129
:10113000A902A091AA02B091AB023091AC02019633
:10114000A11DB11D232F2D5F2D3720F02D570196A6
:10115000A11DB11D2093AC028093A8029093A90217
:10116000A093AA02B093AB028091A4029091A50231
:10117000A091A602B091A7020196A11DB11D809376
:10118000A4029093A502A093A602B093A702BF91D8
:10119000AF919F918F913F912F910F900FBE0F9024
:1011A0001F9018959B01AC017FB7F8948091A40221
:1011B0009091A502A091A602B091A70266B5A89B46
:1011C00005C06F3F19F00196A11DB11D7FBFBA2F59
:1011D000A92F982F8827860F911DA11DB11D62E0B0
:1011E000880F991FAA1FBB1F6A95D1F7BC012DC09C
:1011F000FFB7F8948091A4029091A502A091A60255
:10120000B091A702E6B5A89B05C0EF3F19F0019683
:10121000A11DB11DFFBFBA2FA92F982F88278E0FB0
:10122000911DA11DB11DE2E0880F991FAA1FBB1FD0
:10123000EA95D1F7861B970B885E9340C8F2215040
:1012400030404040504068517C4F211531054105E8
:10125000510571F60895789484B5826084BD84B593
:10126000816084BD85B5826085BD85B5816085BDA1
:10127000EEE6F0E0808181608083E1E8F0E01082BA
:10128000808182608083808181608083E0E8F0E0FB
:10129000808181608083E1EBF0E0808184608083E5
:1012A000E0EBF0E0808181608083EAE7F0E080811C
:1012B000846080838081826080838081816080837C
:1012C0008081806880831092C100089597FB092E69
:1012D00007260AD077FD04D02ED006D000201AF4BD
:1012E000709561957F4F0895F6F7909581959F4F82
:1012F0000895A1E21A2EAA1BBB1BFD010DC0AA1F57
:10130000BB1FEE1FFF1FA217B307E407F50720F06E
:10131000A21BB30BE40BF50B661F771F881F991FE9
:101320001A9469F760957095809590959B01AC0132
:10133000BD01CF010895AA1BBB1B51E107C0AA1F25
:10134000BB1FA617B70710F0A61BB70B881F991F66
:101350005A95A9F780959095BC01CD010895EE0F9F
:10136000FF1F0590F491E02D099491110895815685
:101370008A5108F480528558089511E0CCEED1E0EE
:1013800004C0FE010E94B1092296CE3ED107C9F7E2
:04139000F894FFCFFF
:10139400004142432D3132332D2F7C5C000020006C
:1013A400B1020000000000009A04BC04860886080C
:1013B40086088608B204B504A004A304A604AA04FB
:1013C400AE04B80400000000BA05C3056905C504ED
:1013D400EF04F104B204B504A004A304A604AA040F
:1013E400AE04B804000000006007F607F6062707FD
:0413F4000707500790
:00000001FF
