:100000000C94F7000C941F010C941F010C941F0119
:100010000C941F010C941F010C941F010C941F01E0
:100020000C941F010C941F010C941F010C941F01D0
:100030000C941F010C941F010C941F010C941F01C0
:100040000C94AC0E0C941F010C94080C0C94560CE0
:100050000C941F010C941F010C941F010C941F01A0
:100060000C941F010C941F016660060024600600BA
:10007000636C0300F0F000006C630C000692060055
:100080005693060046440600214608002622060034
:10009000009006000F00000000620C0042420200C7
:1000A0006666060024240400B00D0000D6B90600E0
:1000B000276202008F170E001F170F00119F090003
:1000C0001F8E0F009F8F070024120F009F960F00B6
:1000D000119F0F00DDDF0600DEDF0E00D6DC06001C
:1000E000DEDD0E00CFCE0F00CCCE0F00D7CF070045
:1000F000DDDF0D006F660F00BF330F00DDDE0D008A
:10010000CFCC0C0099FF0900B9DF0900D6DD06004D
:10011000CCDF0E00A7990600EDDD0E001ECF070014
:1001200066660F00D6DD0D0052DD0D00F699090060
:10013000699609002C970900CF360F00999F060099
:100140009E9F0E00969806009E990E008F8E0F00BF
:10015000888E0F00978B0700999F09004F440F006E
:10016000AE220F00A9AC09008F88080099FF090092
:10017000B9DF090096990600889F0E00A79906002E
:10018000E9990E001E8F070044440F00969909005C
:1001900052990900F6990900699609002C970900FF
:1001A0004F120F0000000000026606000055050017
:1001B000F5F505005EAF07004D260B00BD5E07009C
:1001C000002406004244020024220400A0A40000EF
:1001D000404E000024060000000F000066000000F2
:1001E000482601005A5A0A00550AC20D4E0A112427
:1001F0001FBECFEFD4E0DEBFCDBF11E0A0E0B1E085
:10020000E8EDFFE102C005900D92A03EB107D9F7DD
:1002100013E0A0EEB1E001C01D92A735B107E1F7F0
:1002200011E0CCEED1E004C02297FE010E94D30F72
:10023000C83ED107C9F70E94990E0C94DF0F0C94A9
:100240000000CF93DF93BC018230910510F462E08F
:1002500070E0A0915503B0915603ED01E0E0F0E0AD
:1002600040E050E021C0888199818617970769F4A2
:100270008A819B81309719F09383828304C0909385
:10028000560380935503FE0134C06817790738F48C
:100290004115510519F08417950708F4AC01FE01CA
:1002A0008A819B819C01E9012097E9F6411551055E
:1002B000A9F1CA01861B970B049708F4BA01E0E084
:1002C000F0E02AC08D919C91119784179507F9F45D
:1002D0006417750781F412968D919C91139730974E
:1002E00019F09383828304C090935603809355033F
:1002F000FD0132964CC0CA01861B970BFD01E80F29
:10030000F91F6193719302978D939C9340C0FD01F7
:10031000828193819C01D9011097A1F680915303AA
:1003200090915403892B41F480910401909105012F
:100330009093540380935303409106015091070119
:100340004115510541F44DB75EB78091020190917E
:100350000301481B590B2091530330915403CA01E8
:10036000821B930B8617970780F0AB014E5F5F4FA0
:100370008417950750F0420F531F50935403409336
:100380005303F9016193719302C0E0E0F0E0CF0103
:10039000DF91CF910895CF93DF93009709F450C078
:1003A000EC0122971B821A82A0915503B09156034B
:1003B000109709F140E050E0AC17BD0708F1BB838E
:1003C000AA83FE0121913191E20FF31FAE17BF07FF
:1003D00079F48D919C911197280F391F2E5F3F4F13
:1003E0003983288312968D919C9113979B838A83DE
:1003F0004115510571F4D0935603C093550320C0A5
:1004000012968D919C911397AD01009711F0DC012C
:10041000D3CFFA01D383C28321913191E20FF31F2D
:10042000CE17DF0769F488819981280F391F2E5F65
:100430003F4FFA01318320838A819B81938382839A
:10044000DF91CF910895DC0101C06D934150504080
:10045000E0F70895FC018CE091E09183808308959A
:10046000FC018CE091E091838083CF010E94A90E72
:1004700008958F929F92AF92BF92CF92DF92EF92A8
:10048000FF920F931F93CF93DF937C01862E942EC0
:10049000DC01ED91FC91068CF78DE02D09955C0156
:1004A000D701ED91FC91048CF58DE02DC7010995E4
:1004B0006C0100E010E01FC0D701ED91FC910488B1
:1004C000F589E02DC701BE01A8010995019711F03A
:1004D000692D01C0682D88E293E00E94420E2196AA
:1004E000CC15DD054CF388E293E060E071E00E94FA
:1004F000860E0F5F1F4F0A151B051CF4C0E0D0E0ED
:10050000EFCFDF91CF911F910F91FF90EF90DF9090
:10051000CF90BF90AF909F908F900895FC018CE09A
:1005200091E0918380830895FC01A081B18162856F
:10053000738516962D913C911797F90109950895A9
:10054000CF92DF92EF92FF920F931F93CF93DF939F
:100550007C016B01C0E0D0E012C0D701ED91FC91AD
:10056000119712962D913C91139700A0F1A1E02DC7
:10057000C70160E070E0AE01860109952196F701A0
:1005800084819581C817D90744F3DF91CF911F91DA
:100590000F91FF90EF90DF90CF9008950F931F93EE
:1005A000FC0184E391E091838083738362835583AC
:1005B0004483378326831187008713861286CF01F1
:1005C00060E070E00E94A0021F910F910895FC016D
:1005D000A081B1814285538550962D913C915197D0
:1005E000F901099508958F929F92AF92BF92CF9291
:1005F000DF92EF92FF920F931F93CF93DF935C01F3
:100600007B014A01DB011296CD91DC91139716967E
:10061000CD90DC901797CC0EDD1E13C0D501ED9167
:10062000FC91D7016D917C91119714962D913C917D
:10063000159700A0F1A1E02DC501AE018401099537
:100640002196CC15DD0554F3DF91CF911F910F91C9
:10065000FF90EF90DF90CF90BF90AF909F908F90E2
:100660000895FC01A081B181628573859A962D91D0
:100670003C919B97F90109950895FF920F931F9361
:10068000CF93DF93EC01F42E2F5F3F4F269F800125
:10069000279F100D369F100D1124E881F98100A8C5
:1006A000F1A9E02D0995081719072CF4E885F985BB
:1006B000E00FF11FF082DF91CF911F910F91FF901A
:1006C00008950F931F93CF93DF93EC014F5F5F4F1C
:1006D000469F8001479F100D569F100D1124E88101
:1006E000F98100A8F1A9E02D09950817190714F060
:1006F00080E005C0E885F985E00FF11F8081DF917A
:10070000CF911F910F910895DC01ED91FC9102A012
:10071000F3A1E02D09950895FC01D901828193810F
:1007200068177907B4F577FD34C08481958148173F
:1007300059077CF557FF07C00895282B02C0809504
:10074000282320830895868197819C01429FC001C0
:10075000439F900D529F900D11249B0143E03595CE
:1007600027954A95E1F7820F931F0084F185E02DCC
:10077000E80FF91F609570956770707081E090E0E8
:1007800002C0880F991F6A95E2F720811197B9F688
:10079000D4CF0895FC0182819381681779074CF4C6
:1007A00077FD07C0848195814817590714F457FFD6
:1007B00003C0828593850895868197819C01429F1D
:1007C000C001439F900D529F900D11249B0153E057
:1007D000359527955A95E1F70084F185E02DE80FCE
:1007E000F91FE20FF31F808190E06770707002C004
:1007F000880F991F6A95E2F7881F8827881F90E065
:1008000008950F93DC01ED91FC91008CF18DE02DAA
:100810000FEF09950F910895BF92CF92DF92EF925B
:10082000FF920F931F93CF93DF93EC017A01D02EA9
:100830008C819D81481759070CF09DC057FD9BC0C6
:10084000402F422377FF2CC0685F7F4F1616170694
:100850000CF091C08E819F819C01E29EC001E39EBD
:10086000900DF29E900D1124E885F985E80FF91F8F
:1008700028E030E0261B370B50E0022E02C0440F68
:10088000551F0A94E2F7802F90E002C0880F991F4D
:100890002A95E2F7809520818223842B80836BC088
:1008A000CB01E3E095958795EA95E1F7182F77E07E
:1008B000C72EC622EE81FF810E2F01508A819B81B7
:1008C000909581959F4F68E070E00E94880F2FEF10
:1008D00030E002C0220F331F8A95E2F7B22EEE9E5F
:1008E000C001EF9E900DFE9E900D1124810F911D71
:1008F0000884D985C02DC80FD91F50E0EC2DF0E039
:10090000CA010C2C02C0959587950A94E2F7382FFE
:10091000101709F43B21AD2DB0E0CD010E2E02C021
:10092000959587950A94E2F7809528818223382B44
:100930003883CC2001F11017F0F468E070E06E1BF2
:100940007F0B062E02C0440F551F0A94E2F7812F39
:1009500090E00196202F30E08217930709F44B2195
:1009600002C0AA0FBB1F6A95E2F78A2F8095998172
:100970008923482B4983DF91CF911F910F91FF90DD
:10098000EF90DF90CF90BF900895EF92FF920F937A
:100990001F93CF93DF93EC018A018C819D814817CF
:1009A000590714F457FF07C08A859B85892B09F0E6
:1009B0007BC08FEF7AC077FF21C0685F7F4F16162C
:1009C00017060CF071C08E819F819C01429FC0016F
:1009D000439F900D529F900D1124E885F985E80FF3
:1009E000F91F208130E088E090E0861B970B02C061
:1009F000359527958A95E2F7822F57C0CB01F3E012
:100A000095958795FA95E1F7F82E462F4770EE8178
:100A1000FF81EE2EEA9428E030E08A819B8168E035
:100A200070E00E94880F281B390B8FEF90E002C006
:100A3000880F991F2A95E2F7A82F0E9FC0010F9FDC
:100A4000900D1E9F900D11248F0D911DE885F98545
:100A5000E80FF91F5081FE1409F45A23642F70E047
:100A60004423C1F0FE14B0F441818F2D90E0019633
:100A70002E2D30E08217930709F44A23242F30E00B
:100A800088E090E0861B970B02C0359527958A95E4
:100A9000E2F701C020E0852F90E002C0880F991F87
:100AA0006A95E2F7822B01C080E0DF91CF911F9120
:100AB0000F91FF90EF900895FC017387628708956E
:100AC000FC01828593850895FC01828193810895BC
:100AD000FC01848195810895FC01868197810895A8
:100AE000FC012481358186819781A901489F90016D
:100AF000499F300D589F300D1124C9010895413090
:100B0000510511F040E001C04FEFCB01642F70E0C0
:100B1000A9010E94230208952F923F924F925F9263
:100B20006F927F928F929F92AF92BF92CF92DF92FD
:100B3000EF92FF920F931F93DF93CF9300D00F920A
:100B4000CDB7DEB75C017B836A832A017901180186
:100B5000DC011296ED91FC911397E617F7070CF460
:100B6000C2C057FDC0C014968D919C91159748172F
:100B700059070CF0B8C02115310509F4B4C037FF8E
:100B800009C0F094E194F108F394AB014E195F09A8
:100B90005B834A838A819B8197FF06C0E80EF91E1A
:100BA000F7FCA1C01B821A828A819B818E0D9F1D3A
:100BB000E817F9072CF47F01AA81BB81EA1AFB0A26
:100BC0002A813B8127703070622E8A809B808E0C38
:100BD0009F1CC40168E070E00E94880F8983222373
:100BE00059F4B8E0EB16F1043CF07724E815F90568
:100BF00024F0772473941FC0772400E010E0B8E05D
:100C0000CB2ED12CC618D10810C0D501ED91FC9186
:100C10006A817B81600F711F0288F389E02DC50115
:100C2000A201910109950F5F1F4F0E151F051CF4BE
:100C30000C151D0554F3062D10E0B981CB2EDD24D3
:100C4000C80108978E0D9F1D8C199D0968E070E002
:100C50000E94880F262F270D31F1EA81FB813796FC
:100C6000A3E0F595E795AA95E1F7FB83EA83D50123
:100C700016968D919C911797FC014E9EC0014F9E38
:100C8000900D5E9E900D11244A815B81840F951F0B
:100C900018966D917C911997680F791FC501A10174
:100CA00030E00E947F0559815523E9F00E0D1F1D8C
:100CB00009301105C4F07401EC18FD0800E010E0E3
:100CC0000FC0D501ED91FC91B8016E0D7F1D02881A
:100CD000F389E02DC501A201910109950F5F1F4F16
:100CE0000C151D0574F30F900F900F90CF91DF91AD
:100CF0001F910F91FF90EF90DF90CF90BF90AF903A
:100D00009F908F907F906F905F904F903F902F902B
:100D10000895CF92DF92EF92FF920F931F938C0171
:100D20006B01DC011896ED90FC901997ED91FC9108
:100D300000A8F1A9E02D09959C01C801B701A60101
:100D40000E947F051F910F91FF90EF90DF90CF9051
:100D50000895FF920F931F93DC01F62E18960D91C4
:100D60001C911997ED91FC9100A8F1A9E02D09952E
:100D7000AC01C8016F2D70E00E9423021F910F91FA
:100D8000FF900895FC018CE091E091838083CF0176
:100D90000E94A90E0895FC018AE691E09183808368
:100DA00053834283758364830895FC018CE091E052
:100DB000918380830895CF93DF93FC018281938197
:100DC000EC01A881B981648175811E96ED91FC9139
:100DD0001F970995DF91CF910895CF93DF93DC01A1
:100DE000AB0112968D919C911397EC01E881F981EA
:100DF00014966D917C9115970088F189E02D0995E5
:100E0000DF91CF910895DC01ED91FC9102A0F3A157
:100E1000E02D09950895FC01A281B381ED91FC912B
:100E200011970284F385E02DCD0109950895DC0129
:100E30001296ED91FC911397A081B1811C962D9192
:100E40003C911D97CF01F90109950895FC01758327
:100E500064830895CF92DF92EF92FF920F931F93D6
:100E60008C017B01DC01ED91FC911197C088D18848
:100E700012960D90BC91A02DED91FC9111970484D8
:100E8000F585E02DCD010995AC01C801B701F6014A
:100E900009951F910F91FF90EF90DF90CF900895EB
:100EA0000F931F93CF93DF93DC01EB018A0114961C
:100EB000ED91FC9115976081718184819581860FF8
:100EC000971FC817D90704F5C617D707ECF042815A
:100ED000538186819781840F951F08171907A4F401
:100EE000041715078CF01296ED91FC911397A081D1
:100EF000B1816C0F7D1F400F511F52960D90BC9118
:100F0000A02DCF01FD010995DF91CF911F910F9188
:100F10000895CF93DF93DC019B01EA011496ED91D4
:100F2000FC9115976081718184819581860F971F4F
:100F3000281739077CF42617370764F0428153815C
:100F400086819781840F951FC817D9071CF4C41791
:100F5000D50784F41296ED91FC911397A081B1818D
:100F60001C962D913C911D97CF01F9010995DF91B8
:100F7000CF9108951296ED91FC911397A081B181C4
:100F8000620F731F4C0F5D1F54962D913C91559726
:100F9000CF01F9010995EBCF0F93DC01ED91FC91A5
:100FA000008CF18DE02D0FEF09950F910895EF92D0
:100FB000FF920F93CF93DF93FC01EB017A01448101
:100FC0005581DA0116968D919C911797E816F906CE
:100FD0000CF048C0F7FC46C0BFEF683F7B070CF43D
:100FE00041C0DA0114966D917C911597C617D70709
:100FF000CCF535C0222733272C1B3D0B8FEF90E01B
:1010000002C0959587952A95E2F708239E01261B35
:10101000370B285F3F4F1216130644F48FEF90E012
:1010200002C0880F991F2A95E2F708230280F381F6
:10103000E02D80819181DA016D917C9111976C0F87
:101040007D1F12964D915C9113974E0D5F1DEC0123
:10105000AE89BF89CF01202FFD01099503C0D7FFBD
:10106000D5CFC8CFDF91CF910F91FF90EF9008952A
:10107000CF92DF92EF92FF920F931F93CF93DF9364
:101080007C01EB016A01DC011296ED91FC91139752
:10109000A081B1811C962D913C911D97CF01F90142
:1010A0000995019711F00FEF01C000E0D7011496E8
:1010B000ED91FC91159786819781C816D906D4F5D4
:1010C000D7FC38C0BFEFC83FDB07A4F1448155818E
:1010D000C417D5077CF538C0222733272C1B3D0BBE
:1010E0008FEF90E002C0959587952A95E2F7182F2B
:1010F0009E01241B350B285F3F4F1216130644F444
:101100008FEF90E002C0880F991F2A95E2F718230D
:10111000F701A281B381ED91FC911197028CF38DBF
:10112000E02DCD01BE01A6010995912F90950923CF
:101130001823012B802FDF91CF911F910F91FF90EA
:10114000EF90DF90CF900895D7FDC6CF1FEFD0CF9F
:10115000CF92DF92EF92FF920F931F93CF93DF9383
:10116000FC01EB017A01680137FF05C0309521953C
:101170003F4FC21BD30BD7FF04C02C0F3D1FC0E055
:10118000D0E004811581D80114964D915C9115979A
:10119000C417D50754F5F7FC28C016968D919C917D
:1011A0001797E816F9060CF5C9018C0F9D1F8417D7
:1011B00095071CF09A012C1B3D0B0280F381E02D5A
:1011C00080819181D8016D917C9111976C0F7D1F69
:1011D00012964D915C9113974E0D5F1DEC01A8A1E5
:1011E000B9A1CF018601FD010995DF91CF911F9132
:1011F0000F91FF90EF90DF90CF900895DC0114964F
:10120000ED91FC911597848195810895DC011496E8
:10121000ED91FC911597868197810895DC01FB0182
:101220008481958197FF0CC022273327281B390B17
:101230003583248380819181821B930B91838083EA
:101240008681978197FF0CC022273327281B390BF3
:101250003783268382819381821B930B93838283BE
:101260002081318137FF0AC084819581820F931FCD
:1012700097FD4AC095838483118210822281338135
:1012800037FF0AC086819781820F931F97FD3CC06C
:1012900097838683138212826081718114960D90E8
:1012A000BC91A02D14964D915C911597641775070C
:1012B0005CF52281338116968D919C9117972817A2
:1012C000390714F584819581860F971F8417950738
:1012D00034F041505040461B570B558344834281A4
:1012E000538116962D913C91179786819781840F93
:1012F000951F8217930734F021503040241B350B83
:101300003783268381E0089580E00895AF92BF92ED
:10131000CF92DF92EF92FF920F931F93DF93CF93C1
:10132000CDB7DEB728970FB6F894DEBF0FBECDBF9E
:101330006C015A01DE011196FB0188E001900D92CB
:101340008150E1F7C601BE016F5F7F4F0E940E0919
:101350008823B9F1D6011496ED91FC9115978981F6
:101360009A8120813181820F931F9A8389838B8197
:101370009C8122813381820F931F9C838B83EE2477
:10138000FF241AC0D6011296ED91FC911397A0810B
:10139000B18169817A814B815C814E0D5F1D2D8108
:1013A0003E8190960D90BC91A02DCF018501FD014D
:1013B00009950894E11CF11C8F819885E816F906BF
:1013C0000CF328960FB6F894DEBF0FBECDBFCF91B9
:1013D000DF911F910F91FF90EF90DF90CF90BF9022
:1013E000AF900895FC018CE091E091838083CF0160
:1013F0000E94A90E08950F931F93CF93DF93EC01E2
:1014000081309105A9F56F5F7F4F09F042C08CE7ED
:1014100092E064E670E04CE050E02DE030E000EE59
:1014200011E00E94CE0288E892E06CE772E00E9430
:10143000F60B8AE090E09093930280939202D0930F
:101440009502C093940284E090E090939702809379
:10145000960286E090E090939902809398028AE940
:1014600092E062E972E04CE752E00E94CB0611C0C4
:10147000009779F46F5F7F4F61F48AE992E00E94F0
:10148000D50688E892E00E94DC0B8CE792E00E948F
:101490008E02DF91CF911F910F91089580E090E02F
:1014A0006FEF7FEF0E94FB09089581E090E06FEFFE
:1014B0007FEF0E94FB09089588E293E040E855E23F
:1014C00060E070E00E94910C0895EF92FF920F93FC
:1014D0001F938CE7E82E82E0F82EC70160E070E0F1
:1014E0000E94A00208E812E0C80161E070E00E94DA
:1014F000C20AC80162E070E042E050E028E50E94C4
:10150000850B8AE992E061E070E00E94ED06C70178
:1015100068E54EE20E94840388E293E061E071E0B6
:101520000E94860E68E873E180E090E00E94F40E6D
:101530001F910F91FF90EF9008950E94650A089502
:10154000FC0184E991E09183808373836283148238
:10155000158281E090E09783868311861086089536
:10156000FC0184E991E0918380830895FC0184E982
:1015700091E0918380830895FC0184810895FC01AA
:1015800064830895FC01778366830895FC01868156
:1015900097810895FC01718760870895FC0185811A
:1015A0000895FC0165830895FC0180859185089567
:1015B000FC0184E991E091838083CF010E94A90E10
:1015C0000895CF92DF92EF92FF920F931F93CF93E4
:1015D000DF938C017B016A01E90111C0D801ED9113
:1015E000FC910480F581E02DC801B701A6010995A1
:1015F0002196F801858190E00496E80EF91E288175
:10160000222361F7DF91CF911F910F91FF90EF900F
:10161000DF90CF90089585E0089584E00895CF93FA
:10162000DF93EC01862F992787FD909560536A30F0
:1016300040F4FC01EE0FFF1FEE0FFF1FE451F040DE
:101640005BC00E94D70F282F81548A31B8F4888557
:101650009985332727FD3095019741F4F901EE0F65
:10166000FF1FEE0FFF1FE053F04046C0F901EE0FE1
:10167000FF1FEE0FFF1FE85CFF4F3EC0822F80521E
:10168000803158F4E22FFF27E7FDF095EE0FFF1FA2
:10169000EE0FFF1FEC5DFE4F2FC0822F8A53873065
:1016A00058F4E22FFF27E7FDF095EE0FFF1FEE0F36
:1016B000FF1FE058F04020C0822F8B55863058F431
:1016C000E22FFF27E7FDF095EE0FFF1FEE0FFF1F44
:1016D000E85EF04011C0822F8B57843058F4E22F1F
:1016E000FF27E7FDF095EE0FFF1FEE0FFF1FE05500
:1016F000F14002C0E4EEF1E025913591459154911D
:10170000B901CA01DF91CF9108954F925F926F9214
:101710007F928F929F92AF92BF92CF92DF92EF9281
:10172000FF920F93CF93DF935C012B013A01622F5D
:101730000E940F0B6B017C01F50186819781892B3B
:1017400021F4C094D094E094F094862D8C5FC0E096
:10175000D0E0882E992487FC909418C0F501A281CE
:10176000B381ED91FC9111972C2D2295207F008C57
:10177000F18DE02DCD01B20100EF099574E0F694F2
:10178000E794D794C7947A95D1F72196A4014C1B7E
:101790005D0B4615570514F7DF91CF910F91FF9020
:1017A000EF90DF90CF90BF90AF909F908F907F9001
:1017B0006F905F904F900895FC0184EB91E09183CE
:1017C0008083CF010E94B00A08950F931F938C016C
:1017D00084EB91E0F80191838083C8010E94B00AF4
:1017E000C8010E94A90E1F910F9108950F931F9396
:1017F0008C010E94A00A84EB91E0F8019183808320
:1018000086E0848382E085831F910F910895089577
:101810001F920F920FB60F9211242F933F934F9365
:101820008F939F93EF93FF938091C00082FD1DC023
:101830004091C6002091E0023091E1022F5F3F4FBE
:101840002F7330708091E2029091E30228173907DC
:1018500071F0E091E002F091E102E056FD4F40832B
:101860003093E1022093E00202C08091C600FF9114
:10187000EF919F918F914F913F912F910F900FBEBC
:101880000F901F901895E0913403F0913503E05CC0
:10189000FF4F8191919120813181821B930B8F7336
:1018A0009070892B11F00E94070C08951F920F92DF
:1018B0000FB60F9211242F933F938F939F93EF9323
:1018C000FF9320912403309125038091260390916A
:1018D00027032817390731F48091C1008F7D809349
:1018E000C10014C0E0912603F0912703EC51FD4F95
:1018F0002081809126039091270301968F73907029
:1019000090932703809326032093C600FF91EF91C5
:101910009F918F913F912F910F900FBE0F901F902D
:101920001895AF92BF92DF92EF92FF920F931F93A1
:10193000CF93DF93EC017A018B01DD24403081EEFF
:10194000580780E0680780E0780711F0DD24D39421
:1019500091E0A92EB12CEC89FD89DD2069F0C5014B
:1019600008A002C0880F991F0A94E2F7808360E004
:1019700079E08DE390E005C0108260E874E88EE1C4
:1019800090E0A80197010E949B0F215030404040F9
:101990005040569547953795279580E12030380778
:1019A00020F0DD2011F0DD24D6CFE889F9893083DD
:1019B000EA89FB89208319A2EE89FF89408121E011
:1019C00030E0C9010C8C02C0880F991F0A94E2F71D
:1019D000482B4083EE89FF894081C9010D8C02C0EC
:1019E000880F991F0A94E2F7482B4083EE89FF89FC
:1019F0004081C9010E8C02C0880F991F0A94E2F73A
:101A0000482B4083EE89FF8980810F8C02C0220F12
:101A1000331F0A94E2F7209528232083DF91CF918A
:101A20001F910F91FF90EF90DF90BF90AF900895BE
:101A3000DC011C96ED91FC911D97E05CFF4F21911C
:101A4000319180819181281B390B2F733070C9012E
:101A50000895DC011C96ED91FC911D97E05CFF4F11
:101A600020813181E054F040DF01AE5BBF4F8D91AA
:101A70009C9111972817390719F42FEF3FEF07C0F2
:101A80008D919C91E80FF91F8081282F30E0C901CA
:101A90000895DC011C96ED91FC911D97E05CFF4FD1
:101AA00020813181E054F040DF01AE5BBF4F8D916A
:101AB0009C9111972817390719F42FEF3FEF10C0A9
:101AC0008D919C911197E80FF91F20818D919C9128
:101AD000119701968F73907011969C938E9330E0BE
:101AE000C9010895DC0191968C919197882339F072
:101AF0005496ED91FC915597808186FFF9CF919690
:101B00001C920895CF93DF93EC01EE85FF85E05C96
:101B1000FF4F20813181E054F0402F5F3F4F2F7302
:101B20003070DF01AE5BBF4F8D919C9111972817EC
:101B30003907D1F3E05CFF4F80819181E054F040A0
:101B4000E80FF91F6083EE85FF85E05CFF4F31836E
:101B50002083EE89FF89208181E090E00F8C02C014
:101B6000880F991F0A94E2F7282B208381E089A32C
:101B7000EC89FD8980818064808381E090E0DF9141
:101B8000CF91089510922B0310922A0388EE93E0D0
:101B9000A0E0B0E080932C0390932D03A0932E033C
:101BA000B0932F0384ED91E0909329038093280351
:101BB00080EA92E0909335038093340384EE92E0C0
:101BC000909337038093360385EC90E0909339032C
:101BD0008093380384EC90E090933B0380933A0326
:101BE00080EC90E090933D0380933C0381EC90E087
:101BF00090933F0380933E0382EC90E090934103E7
:101C00008093400386EC90E09093430380934203DB
:101C100084E08093440383E08093450387E08093CE
:101C2000460385E08093470381E08093480308954D
:101C3000CF92DF92EF92FF920F931F93CF93DF9398
:101C40007C016B018A01C0E0D0E00FC0D6016D912C
:101C50006D01D701ED91FC910190F081E02DC7015C
:101C60000995C80FD91F015010400115110571F7D2
:101C7000CE01DF91CF911F910F91FF90EF90DF90F8
:101C8000CF900895DC01ED91FC910190F081E02D61
:101C900009950895EF92FF920F931F938C01DC0139
:101CA000ED91FC910190F081E02D6DE009957C01B2
:101CB000D801ED91FC910190F081E02DC8016AE01E
:101CC00009959C012E0D3F1DC9011F910F91FF9099
:101CD000EF900895CF93DF93EC016115710519F42E
:101CE00020E030E00FC0DB010D900020E9F71197F4
:101CF000A61BB70BE881F9810280F381E02DAD01CD
:101D000009959C01C901DF91CF910895EF92FF924F
:101D10000F931F937C010E946A0E8C01C7010E94E1
:101D20004A0E080F191FC8011F910F91FF90EF90E5
:101D30000895CF93DF930E944D0F0E945C0AC3E485
:101D4000DCE00E949D0A2097E1F30E94430CF9CF4A
:101D500008950E94CB0108951F920F920FB60F9223
:101D600011242F933F938F939F93AF93BF938091B1
:101D70004E0390914F03A0915003B09151033091C5
:101D800052030196A11DB11D232F2D5F2D3720F089
:101D90002D570196A11DB11D2093520380934E0330
:101DA00090934F03A0935003B093510380914A0343
:101DB00090914B03A0914C03B0914D030196A11D4E
:101DC000B11D80934A0390934B03A0934C03B093AF
:101DD0004D03BF91AF919F918F913F912F910F90A4
:101DE0000FBE0F901F9018959B01AC017FB7F89420
:101DF00080914A0390914B03A0914C03B0914D0305
:101E000066B5A89B05C06F3F19F00196A11DB11DD5
:101E10007FBFBA2FA92F982F8827860F911DA11D4C
:101E2000B11D62E0880F991FAA1FBB1F6A95D1F7E9
:101E3000BC012DC0FFB7F89480914A0390914B03E9
:101E4000A0914C03B0914D03E6B5A89B05C0EF3FB0
:101E500019F00196A11DB11DFFBFBA2FA92F982F10
:101E600088278E0F911DA11DB11DE2E0880F991FDB
:101E7000AA1FBB1FEA95D1F7861B970B885E93407C
:101E8000C8F2215030404040504068517C4F2115ED
:101E900031054105510571F60895789484B5826045
:101EA00084BD84B5816084BD85B5826085BD85B5FE
:101EB000816085BDEEE6F0E0808181608083E1E8AD
:101EC000F0E01082808182608083808181608083E5
:101ED000E0E8F0E0808181608083E1EBF0E08081E8
:101EE00084608083E0EBF0E0808181608083EAE7BA
:101EF000F0E0808184608083808182608083808143
:101F0000816080838081806880831092C100089501
:101F100097FB092E07260AD077FD04D02ED006D0D5
:101F200000201AF4709561957F4F0895F6F790950B
:101F300081959F4F0895A1E21A2EAA1BBB1BFD019C
:101F40000DC0AA1FBB1FEE1FFF1FA217B307E40798
:101F5000F50720F0A21BB30BE40BF50B661F771FF0
:101F6000881F991F1A9469F76095709580959095D0
:101F70009B01AC01BD01CF010895AA1BBB1B51E120
:101F800007C0AA1FBB1FA617B70710F0A61BB70BE9
:101F9000881F991F5A95A9F780959095BC01CD018E
:101FA0000895EE0FFF1F0590F491E02D0994911113
:101FB000089581568A5108F480528558089511E099
:101FC000CCEED1E004C0FE010E94D30F2296CE3E9B
:081FD000D107C9F7F894FFCF17
:101FD8000000200057030000000000002A02300221
:101FE800A80EA80EA80EA80EA80EA80EA80EA80E39
:101FF800A80EA80EA80EA80EA80EA80EA80E3902A4
:10200800000000008E02C2069402A00284035C0550
:102018006005E702F3028C03CA0301040C04C5043B
:10202800640568058C0539023D036103310389069F
:10203800A9066C05700500000000D506F209DB064C
:10204800ED0603070B0717072A07860950078907B4
:10205800CC07D7073808FE080609A808390226075A
:1020680000000000B60AD80AA80EA80EA80EA80EEE
:10207800CE0AD10ABC0ABF0AC20AC60ACA0AD40AC8
:1020880000000000DC0BE50B850BE10A0B0B0D0BC8
:10209800CE0AD10ABC0ABF0AC20AC60ACA0AD40AA8
:1020A80000000000820D180E180D490D290D720D43
:00000001FF
