:100000000C9437000C945F000C945F000C945F001C
:100010000C945F000C945F000C945F000C945F00E4
:100020000C945F000C945F000C945F000C945F00D4
:100030000C945F000C945F000C945F000C945F00C4
:100040000C9447070C945F000C94A3040C94F104E7
:100050000C945F000C945F000C945F000C945F00A4
:100060000C945F000C945F007F035D0678031124FD
:100070001FBECFEFD4E0DEBFCDBF11E0A0E0B1E006
:10008000EEE0F1E102C005900D92A437B107D9F777
:1000900012E0A4E7B1E001C01D92AB35B107E1F772
:1000A00010E0CCE6D0E004C02297FE010E946E086A
:1000B000C836D107C9F70E9434070C947A080C940B
:1000C0000000CF93DF93BC018230910510F462E011
:1000D00070E0A0915902B0915A02ED01E0E0F0E029
:1000E00040E050E021C0888199818617970769F424
:1000F0008A819B81309719F09383828304C0909307
:100100005A0280935902FE0134C06817790738F407
:100110004115510519F08417950708F4AC01FE014B
:100120008A819B819C01E9012097E9F641155105DF
:10013000A9F1CA01861B970B049708F4BA01E0E005
:10014000F0E02AC08D919C91119784179507F9F4DE
:100150006417750781F412968D919C9113973097CF
:1001600019F09383828304C090935A0280935902BA
:10017000FD0132964CC0CA01861B970BFD01E80FAA
:10018000F91F6193719302978D939C9340C0FD0179
:10019000828193819C01D9011097A1F68091570229
:1001A00090915802892B41F48091030190910401B0
:1001B0009093580280935702409105015091060197
:1001C0004115510541F44DB75EB780910101909101
:1001D0000201481B590B2091570230915802CA0165
:1001E000821B930B8617970780F0AB014E5F5F4F22
:1001F0008417950750F0420F531F509358024093B5
:100200005702F9016193719302C0E0E0F0E0CF0181
:10021000DF91CF910895CF93DF93009709F450C0F9
:10022000EC0122971B821A82A0915902B0915A02C6
:10023000109709F140E050E0AC17BD0708F1BB830F
:10024000AA83FE0121913191E20FF31FAE17BF0780
:1002500079F48D919C911197280F391F2E5F3F4F94
:100260003983288312968D919C9113979B838A835F
:100270004115510571F4D0935A02C093590220C020
:1002800012968D919C911397AD01009711F0DC01AE
:10029000D3CFFA01D383C28321913191E20FF31FAF
:1002A000CE17DF0769F488819981280F391F2E5FE7
:1002B0003F4FFA01318320838A819B81938382831C
:1002C000DF91CF910895DC0101C06D934150504002
:1002D000E0F70895FC01D901808191818617970785
:1002E000A4F177FD32C082819381841795076CF168
:1002F00057FD2BC0848195819C01429FC001439F83
:10030000900D529F900D11249B0143E03595279548
:100310004A95E1F7820F931F0680F781E02DE80FE1
:10032000F91F609570956770707081E090E002C071
:10033000880F991F6A95E2F72081119719F4282BED
:10034000208308958095282320830895FC018081CF
:100350009181861797074CF077FD07C082819381C2
:100360008417950714F057FF03C080859185089581
:10037000848195819C01429FC001439F900D529FB3
:10038000900D11249B0153E0359527955A95E1F77F
:100390000680F781E02DE80FF91FE20FF31F80813F
:1003A00090E06770707002C0880F991F6A95E2F73D
:1003B000881F8827881F90E008954130510511F06B
:1003C00040E001C04FEFCB01642F70E0A9010E9413
:1003D000630108952F923F924F925F926F927F92A6
:1003E0008F929F92AF92BF92CF92DF92EF92FF9245
:1003F0000F931F93DF93CF9300D00F92CDB7DEB74B
:100400005C017B836A832A0179011801DC01ED918B
:10041000FC911197E617F7070CF4B5C057FDB3C070
:1004200012968D919C911397481759070CF0ABC009
:100430002115310509F4A7C037FF09C0F094E194F4
:10044000F108F394AB014E195F095B834A838A81FB
:100450009B8197FF06C0E80EF91EF7FC94C01B8233
:100460001A828A819B818E0D9F1DE817F9072CF453
:100470007F01AA81BB81EA1AFB0A2A813B8127708E
:100480003070622E8A809B808E0C9F1CC40168E0B5
:1004900070E00E9423088983222359F4B8E0EB1608
:1004A000F1043CF07724E815F90524F077247394DF
:1004B0001AC0772400E010E0B8E0CB2ED12CC6188B
:1004C000D1080BC06A817B81600F711FC501A20139
:1004D00091010E946A010F5F1F4F0E151F051CF44A
:1004E0000C151D057CF3062D10E0E981CE2EDD24D0
:1004F000C80108978E0D9F1D8C199D0968E070E05A
:100500000E942308262F270D19F14A815B81495F3C
:100510005F4FA3E055954795AA95E1F7D50114964D
:100520008D919C911597FC014E9EC0014F9E900DA0
:100530005E9E900D1124840F951F16966D917C91EF
:100540001797680F791FC501A10130E00E94DD01F6
:10055000F981FF23C1F00E0D1F1D093011059CF01C
:100560007401EC18FD0800E010E00AC0B8016E0D3F
:100570007F1DC501A20191010E946A010F5F1F4FFB
:100580000C151D059CF30F900F900F90CF91DF91EC
:100590001F910F91FF90EF90DF90CF90BF90AF90A1
:1005A0009F908F907F906F905F904F903F902F9093
:1005B0000895CF92DF92EF92FF920F931F93CF9304
:1005C000DF937C016B01C0E0D0E00BC0F70120811C
:1005D0003181C70160E070E0AE0186010E94EA014E
:1005E0002196F70182819381C817D9077CF3DF91A7
:1005F000CF911F910F91FF90EF90DF90CF900895D2
:100600000F931F93FC01718360835383428335836F
:100610002483178306831186108660E070E00E94B1
:10062000D9021F910F910895CF92DF92EF92FF921E
:100630000F931F93CF93DF937C01C62ED42E00E03F
:1006400010E01DC0C701BE01A8010E94A6010197CC
:1006500011F06D2D01C06C2D8CE292E00E94DD0640
:100660002196F70180819181C817D9075CF38CE24C
:1006700092E060E071E00E9421070F5F1F4FF701D9
:1006800082819381081719071CF4C0E0D0E0E9CFFC
:10069000DF91CF911F910F91FF90EF90DF90CF905E
:1006A00008950F931F9381309105B1F46F5F7F4FD1
:1006B000E1F482E991E064E170E04AE050E023E097
:1006C00030E004E711E00E9400038CE991E062E968
:1006D00071E00E94910409C0892B39F46F5F7F4F4C
:1006E00021F48CE991E00E9477041F910F91089505
:1006F00080E090E06FEF7FEF0E945103089581E06A
:1007000090E06FEF7FEF0E94510308950F931F93C6
:10071000CF93DF93C0E0D0E001E010E082E991E008
:10072000BE010E94D9028CE991E0B8010E94F50354
:100730008CE991E061E070E041E050E029E30E9443
:1007400026048CE991E066E070E041E050E022E3AD
:100750000E9426048CE991E06BE070E041E050E0FB
:1007600025E30E94260482E991E063E24DE20E94C3
:10077000140368E873E180E090E00E948F07CE01E7
:10078000E8018C01CBCF0E94860308958CE292E0B1
:1007900040E855E260E070E00E942C050895FC01FD
:1007A00083E391E091838083738362831482158253
:1007B00081E090E0978386830895FC0183E391E0D4
:1007C000918380830895FC0183E391E0918380838A
:1007D0000895FC0184810895FC0164830895FC015F
:1007E00085810895FC0165830895FC017783668304
:1007F0000895FC0183E391E091838083CF010E94FF
:1008000044070895089585E0089584E00895862FAB
:10081000992787FD90950E947208E82F80538A30AF
:1008200028F020E030E040E050E00DC0FF27E7FD79
:10083000F095EE0FFF1FEE0FFF1FE95BFF4F2081CA
:10084000318142815381B901CA0108954F925F926B
:100850006F927F928F929F92AF92BF92CF92DF92D0
:10086000EF92FF920F931F93CF93DF935C012B01C5
:100870003A01622F0E9407047B018C0124E0C22E02
:10088000D12C1EC0E0FE0BC0BE01640D751DF5012C
:100890002681378182819381A4010E946A01169585
:1008A0000795F794E7942197FFEFCF3FDF0751F7C4
:1008B0000894C108D1088FEFC8168FEFD80631F021
:1008C000C3E0D0E04601860C971CDCCFDF91CF91CE
:1008D0001F910F91FF90EF90DF90CF90BF90AF905E
:1008E0009F908F907F906F905F904F900895FC0144
:1008F0008DE491E091838083CF010E94DD03089510
:100900000F931F938C018DE491E0F8019183808314
:10091000C8010E94DD03C8010E9444071F910F9186
:1009200008950F931F938C010E94CF038DE491E0F3
:10093000F8019183808381E0848386E085831F9121
:100940000F91089508951F920F920FB60F921124E0
:100950002F933F934F938F939F93EF93FF938091A8
:10096000C00082FD1DC04091C6002091E40130917D
:10097000E5012F5F3F4F2F7330708091E60190911A
:10098000E7012817390771F0E091E401F091E501E2
:10099000EC55FE4F40833093E5012093E40102C003
:1009A0008091C600FF91EF919F918F914F913F9160
:1009B0002F910F900FBE0F901F901895E091380265
:1009C000F0913902E05CFF4F81919191208131815A
:1009D000821B930B8F739070892B11F00E94A204DD
:1009E00008951F920F920FB60F9211242F933F93E9
:1009F0008F939F93EF93FF932091280230912902C8
:100A000080912A0290912B022817390731F48091A6
:100A1000C1008F7D8093C10014C0E0912A02F09143
:100A20002B02E851FE4F208180912A0290912B02E7
:100A300001968F73907090932B0280932A022093DB
:100A4000C600FF91EF919F918F913F912F910F9051
:100A50000FBE0F901F901895AF92BF92DF92EF924A
:100A6000FF920F931F93CF93DF93EC017A018B01D9
:100A7000DD24403081EE580780E0680780E0780789
:100A800011F0DD24D39491E0A92EB12CEC89FD89DD
:100A9000DD2069F0C50108A002C0880F991F0A94E3
:100AA000E2F7808360E079E08DE390E005C010829A
:100AB00060E874E88EE190E0A80197010E94360892
:100AC00021503040404050405695479537952795E6
:100AD00080E12030380720F0DD2011F0DD24D6CF72
:100AE000E889F9893083EA89FB89208319A2EE8994
:100AF000FF89408121E030E0C9010C8C02C0880FE1
:100B0000991F0A94E2F7482B4083EE89FF894081C0
:100B1000C9010D8C02C0880F991F0A94E2F7482B77
:100B20004083EE89FF894081C9010E8C02C0880F85
:100B3000991F0A94E2F7482B4083EE89FF89808150
:100B40000F8C02C0220F331F0A94E2F7209528234E
:100B50002083DF91CF911F910F91FF90EF90DF9055
:100B6000BF90AF900895DC011C96ED91FC911D970C
:100B7000E05CFF4F2191319180819181281B390BDD
:100B80002F733070C9010895DC011C96ED91FC9122
:100B90001D97E05CFF4F20813181E054F040DF0180
:100BA000AE5BBF4F8D919C9111972817390719F4AF
:100BB0002FEF3FEF07C08D919C91E80FF91F8081C7
:100BC000282F30E0C9010895DC011C96ED91FC91BD
:100BD0001D97E05CFF4F20813181E054F040DF0140
:100BE000AE5BBF4F8D919C9111972817390719F46F
:100BF0002FEF3FEF10C08D919C911197E80FF91FD7
:100C000020818D919C91119701968F739070119610
:100C10009C938E9330E0C9010895DC0191968C91EC
:100C20009197882339F05496ED91FC9155978081E6
:100C300086FFF9CF91961C920895CF93DF93EC0134
:100C4000EE85FF85E05CFF4F20813181E054F0406C
:100C50002F5F3F4F2F733070DF01AE5BBF4F8D9121
:100C60009C91119728173907D1F3E05CFF4F8081E1
:100C70009181E054F040E80FF91F6083EE85FF8515
:100C8000E05CFF4F31832083EE89FF89208181E082
:100C900090E00F8C02C0880F991F0A94E2F7282B6E
:100CA000208381E089A3EC89FD8980818064808331
:100CB00081E090E0DF91CF91089510922F02109281
:100CC0002E0288EE93E0A0E0B0E080933002909393
:100CD0003102A0933202B093330287E691E0909301
:100CE0002D0280932C0284EA91E090933902809344
:100CF000380288EE91E090933B0280933A0285ECB3
:100D000090E090933D0280933C0284EC90E09093BD
:100D10003F0280933E0280EC90E0909341028093EA
:100D2000400281EC90E0909343028093420282EC77
:100D300090E0909345028093440286EC90E090937B
:100D400047028093460284E08093480283E08093C8
:100D5000490287E080934A0285E080934B0281E05C
:100D600080934C020895CF92DF92EF92FF920F93FF
:100D70001F93CF93DF937C016B018A01C0E0D0E029
:100D80000FC0D6016D916D01D701ED91FC910190DD
:100D9000F081E02DC7010995C80FD91F01501040FF
:100DA0000115110571F7CE01DF91CF911F910F91C0
:100DB000FF90EF90DF90CF900895DC01ED91FC91D2
:100DC0000190F081E02D09950895EF92FF920F9325
:100DD0001F938C01DC01ED91FC910190F081E02DDD
:100DE0006DE009957C01D801ED91FC910190F081B5
:100DF000E02DC8016AE009959C012E0D3F1DC90137
:100E00001F910F91FF90EF900895CF93DF93EC0126
:100E10006115710519F420E030E00FC0DB010D9081
:100E20000020E9F71197A61BB70BE881F981028032
:100E3000F381E02DAD0109959C01C901DF91CF91AE
:100E40000895EF92FF920F931F937C010E94050774
:100E50008C01C7010E94E506080F191FC8011F91E8
:100E60000F91FF90EF900895CF93DF930E94E807D2
:100E70000E94C603CEEDD4E00E94C3032097E1F3A5
:100E80000E94DE04F9CF08950E940B0108951F927D
:100E90000F920FB60F9211242F933F938F939F932E
:100EA000AF93BF938091520290915302A09154024C
:100EB000B0915502309156020196A11DB11D232F0C
:100EC0002D5F2D3720F02D570196A11DB11D2093C8
:100ED00056028093520290935302A0935402B0930F
:100EE000550280914E0290914F02A0915002B09114
:100EF00051020196A11DB11D80934E0290934F02A5
:100F0000A0935002B0935102BF91AF919F918F91E6
:100F10003F912F910F900FBE0F901F9018959B013E
:100F2000AC017FB7F89480914E0290914F02A0914E
:100F30005002B091510266B5A89B05C06F3F19F0F1
:100F40000196A11DB11D7FBFBA2FA92F982F882709
:100F5000860F911DA11DB11D62E0880F991FAA1F68
:100F6000BB1F6A95D1F7BC012DC0FFB7F8948091E3
:100F70004E0290914F02A0915002B0915102E6B5FD
:100F8000A89B05C0EF3F19F00196A11DB11DFFBF41
:100F9000BA2FA92F982F88278E0F911DA11DB11D43
:100FA000E2E0880F991FAA1FBB1FEA95D1F7861BA5
:100FB000970B885E9340C8F221503040404050402B
:100FC00068517C4F211531054105510571F6089591
:100FD000789484B5826084BD84B5816084BD85B514
:100FE000826085BD85B5816085BDEEE6F0E08081DB
:100FF00081608083E1E8F0E01082808182608083FC
:10100000808181608083E0E8F0E08081816080837E
:10101000E1EBF0E0808184608083E0EBF0E08081B0
:1010200081608083EAE7F0E0808184608083808152
:1010300082608083808181608083808180688083FA
:101040001092C100089597FB092E07260AD077FD5C
:1010500004D02ED006D000201AF4709561957F4FF1
:101060000895F6F7909581959F4F0895A1E21A2E65
:10107000AA1BBB1BFD010DC0AA1FBB1FEE1FFF1F3C
:10108000A217B307E407F50720F0A21BB30BE40B8C
:10109000F50B661F771F881F991F1A9469F76095D3
:1010A0007095809590959B01AC01BD01CF0108958D
:1010B000AA1BBB1B51E107C0AA1FBB1FA617B7077E
:1010C00010F0A61BB70B881F991F5A95A9F780959A
:1010D0009095BC01CD010895EE0FFF1F0590F4918E
:1010E000E02D09949111089581568A5108F4805297
:1010F0008558089510E0CCE6D0E004C0FE010E94BF
:0E1100006E082296CE36D107C9F7F894FFCFBD
:10110E000020005B020000D6B90600276202008FA5
:10111E00170E001F170F00119F09001F8E0F009F43
:10112E008F070024120F009F960F00119F0F0000D3
:10113E00000000E303F9034307430743074307E9AE
:10114E0003EC03EF03F203F50300000000770480C5
:10115E00042604020403040504E903EC03EF03F27E
:10116E0003F503000000001D06B306B305E405C435
:04117E00050D060055
:00000001FF
