:100000000C94F7000C941F010C941F010C941F0119
:100010000C941F010C941F010C941F010C941F01E0
:100020000C941F010C941F010C941F010C941F01D0
:100030000C941F010C941F010C941F010C941F01C0
:100040000C94450B0C941F010C94A1080C94EF0820
:100050000C941F010C941F010C941F010C941F01A0
:100060000C941F010C941F016660060024600600BA
:10007000636C0300F0F000006C630C000692060055
:100080005693060046440600214608002622060034
:10009000009006000F00000000620C0042420200C7
:1000A0006666060024240400B00D0000D6B90600E0
:1000B000276202008F170E001F170F00119F090003
:1000C0001F8E0F009F8F070024120F009F960F00B6
:1000D000119F0F00DDDF0600DEDF0E00D6DC06001C
:1000E000DEDD0E00CFCE0F00CCCE0F00D7CF070045
:1000F000DDDF0D006F660F00BF330F00DDDE0D008A
:10010000CFCC0C0099FF0900B9DF0900D6DD06004D
:10011000CCDF0E00A7990600EDDD0E001ECF070014
:1001200066660F00D6DD0D0052DD0D00F699090060
:10013000699609002C970900CF360F00999F060099
:100140009E9F0E00969806009E990E008F8E0F00BF
:10015000888E0F00978B0700999F09004F440F006E
:10016000AE220F00A9AC09008F88080099FF090092
:10017000B9DF090096990600889F0E00A79906002E
:10018000E9990E001E8F070044440F00969909005C
:1001900052990900F6990900699609002C970900FF
:1001A0004F120F0000000000026606000055050017
:1001B000F5F505005EAF07004D260B00BD5E07009C
:1001C000002406004244020024220400A0A40000EF
:1001D000404E000024060000000F000066000000F2
:1001E000482601005A5A0A00EF065B0AE806112465
:1001F0001FBECFEFD4E0DEBFCDBF11E0A0E0B1E085
:10020000EAE0F9E102C005900D92AE3BB107D9F7E3
:1002100013E0AEEBB1E001C01D92AD30B107E1F7E4
:1002200011E0CCEED1E004C02297FE010E946C0CDC
:10023000C83ED107C9F70E94320B0C94780C0C947D
:100240000000CF93DF93BC018230910510F462E08F
:1002500070E0A0910B03B0910C03ED01E0E0F0E041
:1002600040E050E021C0888199818617970769F4A2
:100270008A819B81309719F09383828304C0909385
:100280000C0380930B03FE0134C06817790738F420
:100290004115510519F08417950708F4AC01FE01CA
:1002A0008A819B819C01E9012097E9F6411551055E
:1002B000A9F1CA01861B970B049708F4BA01E0E084
:1002C000F0E02AC08D919C91119784179507F9F45D
:1002D0006417750781F412968D919C91139730974E
:1002E00019F09383828304C090930C0380930B03D3
:1002F000FD0132964CC0CA01861B970BFD01E80F29
:10030000F91F6193719302978D939C9340C0FD01F7
:10031000828193819C01D9011097A1F680910903F4
:1003200090910A03892B41F4809110019091110161
:1003300090930A0380930903409112015091130195
:100340004115510541F44DB75EB780910E01909172
:100350000F01481B590B2091090330910A03CA0170
:10036000821B930B8617970780F0AB014E5F5F4FA0
:100370008417950750F0420F531F50930A03409380
:100380000903F9016193719302C0E0E0F0E0CF014D
:10039000DF91CF910895CF93DF93009709F450C078
:1003A000EC0122971B821A82A0910B03B0910C03DF
:1003B000109709F140E050E0AC17BD0708F1BB838E
:1003C000AA83FE0121913191E20FF31FAE17BF07FF
:1003D00079F48D919C911197280F391F2E5F3F4F13
:1003E0003983288312968D919C9113979B838A83DE
:1003F0004115510571F4D0930C03C0930B0320C039
:1004000012968D919C911397AD01009711F0DC012C
:10041000D3CFFA01D383C28321913191E20FF31F2D
:10042000CE17DF0769F488819981280F391F2E5F65
:100430003F4FFA01318320838A819B81938382839A
:10044000DF91CF910895DC0101C06D934150504080
:10045000E0F70895FC0188E191E09183808308959D
:10046000FC0188E191E091838083CF010E94420BDF
:1004700008958F929F92AF92BF92CF92DF92EF92A8
:10048000FF920F931F93CF93DF937C01862E942EC0
:10049000DC01ED91FC91048CF58DE02D09955C015A
:1004A000D701ED91FC91028CF38DE02DC7010995E8
:1004B0006C0100E010E01FC0D701ED91FC910488B1
:1004C000F589E02DC701BE01A8010995019711F03A
:1004D000692D01C0682D8EED92E00E94DB0A219605
:1004E000CC15DD054CF38EED92E060E071E00E94EA
:1004F0001F0B0F5F1F4F0A151B051CF4C0E0D0E057
:10050000EFCFDF91CF911F910F91FF90EF90DF9090
:10051000CF90BF90AF909F908F900895FC0188E19D
:1005200091E0918380830895FC01A081B18162856F
:10053000738516962D913C911797F90109950895A9
:10054000CF92DF92EF92FF920F931F93CF93DF939F
:100550007C016B01C0E0D0E012C0D701ED91FC91AD
:10056000119712962D913C911397068CF78DE02DE3
:10057000C70160E070E0AE01860109952196F701A0
:1005800084819581C817D90744F3DF91CF911F91DA
:100590000F91FF90EF90DF90CF9008950F931F93EE
:1005A000FC018EE391E091838083738362835583A2
:1005B0004483378326831187008713861286CF01F1
:1005C00060E070E00E94A0021F910F910895FC016D
:1005D000A081B1814285538550962D913C915197D0
:1005E000F901099508958F929F92AF92BF92CF9291
:1005F000DF92EF92FF920F931F93CF93DF935C01F3
:100600007B014A01DB011296CD91DC91139716967E
:10061000CD90DC901797CC0EDD1E13C0D501ED9167
:10062000FC91D7016D917C91119714962D913C917D
:100630001597068CF78DE02DC501AE018401099553
:100640002196CC15DD0554F3DF91CF911F910F91C9
:10065000FF90EF90DF90CF90BF90AF909F908F90E2
:100660000895FC01A081B1816285738598962D91D2
:100670003C919997F90109950895FF920F931F9363
:10068000CF93DF93EC01F42E2F5F3F4F269F800125
:10069000279F100D369F100D1124E881F98106A4C3
:1006A000F7A5E02D0995081719072CF4E885F985B9
:1006B000E00FF11FF082DF91CF911F910F91FF901A
:1006C00008950F931F93CF93DF93EC014F5F5F4F1C
:1006D000469F8001479F100D569F100D1124E88101
:1006E000F98106A4F7A5E02D09950817190714F05C
:1006F00080E005C0E885F985E00FF11F8081DF917A
:10070000CF911F910F910895DC01ED91FC9100A014
:10071000F1A1E02D09950895FC01D9018281938111
:1007200068177907B4F577FD34C08481958148173F
:1007300059077CF557FF07C00895282B02C0809504
:10074000282320830895868197819C01429FC001C0
:10075000439F900D529F900D11249B0143E03595CE
:1007600027954A95E1F7820F931F0084F185E02DCC
:10077000E80FF91F609570956770707081E090E0E8
:1007800002C0880F991F6A95E2F720811197B9F688
:10079000D4CF0895FC0182819381681779074CF4C6
:1007A00077FD07C0848195814817590714F457FFD6
:1007B00003C0828593850895868197819C01429F1D
:1007C000C001439F900D529F900D11249B0153E057
:1007D000359527955A95E1F70084F185E02DE80FCE
:1007E000F91FE20FF31F808190E06770707002C004
:1007F000880F991F6A95E2F7881F8827881F90E065
:100800000895BF92CF92DF92EF92FF920F931F93C2
:10081000CF93DF93EC018A01B22E8C819D81481722
:1008200059070CF09AC057FD98C077FF2CC0685F3D
:100830007F4F161617060CF090C08E819F819C0189
:10084000429FC001439F900D529F900D1124E88557
:10085000F985E80FF91F8FEF90E0062E02C09595FD
:1008600087950A94E2F7408148232B2D30E088E0F9
:1008700090E0861B970B02C0220F331F8A95E2F788
:10088000422B40836AC0CB01E3E095958795EA95BA
:10089000E1F7F82E77E0D72ED622EE81FF81EE2EFB
:1008A000EA9428E030E08A819B8168E070E00E9451
:1008B000210C281B390B8FEF90E002C0880F991F85
:1008C0002A95E2F7C82E0E9FC0010F9F900D1E9F24
:1008D000900D11248F0D911DE885F985E80FF91F02
:1008E0006B2D70E0AD2DB0E0CB010D2C02C09595C5
:1008F00087950A94E2F7382FFE1409F43C2148E06A
:1009000050E04A1B5B0B8FEF90E0042E02C0880F73
:10091000991F0A94E2F720812823322B3083DD20AF
:10092000E1F0FE14D0F402C0660F771F4A95E2F79B
:10093000462F8F2D90E001962E2D30E082179307E1
:1009400009F44C218FEF90E002C095958795AA9508
:10095000E2F721812823422B4183DF91CF911F9120
:100960000F91FF90EF90DF90CF90BF900895EF929E
:10097000FF920F931F93CF93DF93EC018A018C8139
:100980009D814817590714F457FF07C08A859B8536
:10099000892B09F07BC08FEF7AC077FF21C0685F99
:1009A0007F4F161617060CF071C08E819F819C0137
:1009B000429FC001439F900D529F900D1124E885E6
:1009C000F985E80FF91F208130E088E090E0861B70
:1009D000970B02C0359527958A95E2F7822F57C06D
:1009E000CB01F3E095958795FA95E1F7F82E462F20
:1009F0004770EE81FF81EE2EEA9428E030E08A8194
:100A00009B8168E070E00E94210C281B390B8FEF5E
:100A100090E002C0880F991F2A95E2F7A82F0E9F39
:100A2000C0010F9F900D1E9F900D11248F0D911DE1
:100A3000E885F985E80FF91F5081FE1409F45A235F
:100A4000642F70E04423C1F0FE14B0F441818F2D77
:100A500090E001962E2D30E08217930709F44A2387
:100A6000242F30E088E090E0861B970B02C035957C
:100A700027958A95E2F701C020E0852F90E002C01B
:100A8000880F991F6A95E2F7822B01C080E0DF9101
:100A9000CF911F910F91FF90EF900895FC01738704
:100AA00062870895FC01828593850895FC01828107
:100AB00093810895FC01848195810895FC018681CC
:100AC00097810895FC012481358186819781A90150
:100AD000489F9001499F300D589F300D1124C90146
:100AE00008954130510511F040E001C04FEFCB01B6
:100AF000642F70E0A9010E94230208952F923F9273
:100B00004F925F926F927F928F929F92AF92BF921D
:100B1000CF92DF92EF92FF920F931F93DF93CF93C9
:100B200000D00F92CDB7DEB75C017B836A832A01C8
:100B300079011801DC011296ED91FC911397E617EB
:100B4000F7070CF4C2C057FDC0C014968D919C915C
:100B50001597481759070CF0B8C02115310509F44D
:100B6000B4C037FF09C0F094E194F108F394AB01ED
:100B70004E195F095B834A838A819B8197FF06C078
:100B8000E80EF91EF7FCA1C01B821A828A819B81A4
:100B90008E0D9F1DE817F9072CF47F01AA81BB81F8
:100BA000EA1AFB0A2A813B8127703070622E8A8004
:100BB0009B808E0C9F1CC40168E070E00E94210C99
:100BC0008983222359F4B8E0EB16F1043CF0772432
:100BD000E815F90524F0772473941FC0772400E00A
:100BE00010E0B8E0CB2ED12CC618D10810C0D5012A
:100BF000ED91FC916A817B81600F711F0288F389FE
:100C0000E02DC501A201910109950F5F1F4F0E153F
:100C10001F051CF40C151D0554F3062D10E0B981B9
:100C2000CB2EDD24C80108978E0D9F1D8C199D09C0
:100C300068E070E00E94210C262F270D31F1EA8137
:100C4000FB813796A3E0F595E795AA95E1F7FB833D
:100C5000EA83D50116968D919C911797FC014E9EC3
:100C6000C0014F9E900D5E9E900D11244A815B81C4
:100C7000840F951F18966D917C911997680F791FB5
:100C8000C501A10130E00E94710559815523E9F0A9
:100C90000E0D1F1D09301105C4F07401EC18FD087C
:100CA00000E010E00FC0D501ED91FC91B8016E0D90
:100CB0007F1D0288F389E02DC501A20191010995EC
:100CC0000F5F1F4F0C151D0574F30F900F900F90C1
:100CD000CF91DF911F910F91FF90EF90DF90CF9018
:100CE000BF90AF909F908F907F906F905F904F904C
:100CF0003F902F900895CF92DF92EF92FF920F9343
:100D00001F938C016B01DC011896ED90FC901997F4
:100D1000ED91FC9106A4F7A5E02D09959C01C80171
:100D2000B701A6010E9471051F910F91FF90EF90EE
:100D3000DF90CF900895FF920F931F93DC01F62E62
:100D400018960D911C911997ED91FC9106A4F7A5A9
:100D5000E02D0995AC01C8016F2D70E00E942302BF
:100D60001F910F91FF900895FC0188E191E091831C
:100D70008083CF010E94420B08950F931F9381300F
:100D80009105B1F46F5F7F4F01F580E492E064E676
:100D900070E04AE050E02DE030E00EEB11E00E9400
:100DA000CE028CE492E060E472E00E948F080DC0F5
:100DB000892B59F46F5F7F4F41F48CE492E00E94DD
:100DC000750880E492E00E948E021F910F910895B1
:100DD00080E090E06FEF7FEF0E94BD06089581E014
:100DE00090E06FEF7FEF0E94BD0608958EED92E0D8
:100DF00040E855E260E070E00E942A090895CF9330
:100E0000DF938CE492E061E070E00E945607CAEF45
:100E1000DFEF80E492E060E070E00E94A0028CE4EA
:100E200092E061E070E0AE0121E031E00E947507E0
:100E300080E492E060E44EE20E9484038EED92E052
:100E40006DE071E00E941F0B6EEE72E080E090E0BA
:100E50000E948D0B2196CB30D105D9F6DF91CF9131
:100E600008950E94FF060895FC0182E791E09183B6
:100E70008083738362831482158281E090E097837C
:100E80008683118610860895FC0182E791E09183A4
:100E900080830895FC0182E791E091838083089527
:100EA000FC0184810895FC0164830895FC0177832B
:100EB00066830895FC01868197810895FC017187FE
:100EC00060870895FC0185810895FC01658308957C
:100ED000FC01808591850895FC0182E791E0918372
:100EE0008083CF010E94420B0895CF92DF92EF9250
:100EF000FF920F931F93CF93DF938C017B016A01C5
:100F0000E90111C0D801ED91FC910480F581E02D3B
:100F1000C801B701A60109952196F801858190E0E5
:100F20000496E80EF91E2881222361F7DF91CF9104
:100F30001F910F91FF90EF90DF90CF90089585E083
:100F4000089584E00895CF93DF93EC01862F9927CD
:100F500087FD909560536A3040F4FC01EE0FFF1F4F
:100F6000EE0FFF1FE451F0405BC00E94700C282F71
:100F700081548A31B8F488859985332727FD3095C7
:100F8000019741F4F901EE0FFF1FEE0FFF1FE05331
:100F9000F04046C0F901EE0FFF1FEE0FFF1FE85CA7
:100FA000FF4F3EC0822F8052803158F4E22FFF273E
:100FB000E7FDF095EE0FFF1FEE0FFF1FEC5DFE4FFC
:100FC0002FC0822F8A53873058F4E22FFF27E7FD86
:100FD000F095EE0FFF1FEE0FFF1FE058F04020C00E
:100FE000822F8B55863058F4E22FFF27E7FDF095CE
:100FF000EE0FFF1FEE0FFF1FE85EF04011C0822FC3
:101000008B57843058F4E22FFF27E7FDF095EE0F61
:10101000FF1FEE0FFF1FE055F14002C0E4EEF1E0CC
:101020002591359145915491B901CA01DF91CF9134
:1010300008952F923F924F925F926F927F928F927C
:101040009F92AF92BF92CF92DF92EF92FF920F9357
:101050001F93CF93DF935C012B013A01622F0E9413
:10106000A3077B018C01E4E0CE2ED12C25C0E0FE4D
:1010700012C0F501A281B3818D919C911197BE019F
:10108000640D751D26813781FC0122883388CD01CE
:10109000A401F101099516950795F794E794219716
:1010A000FFEFCF3FDF0719F70894C108D1088FEF92
:1010B000C8168FEFD80631F0C3E0D0E04601860CA9
:1010C000971CD5CFDF91CF911F910F91FF90EF909B
:1010D000DF90CF90BF90AF909F908F907F906F9058
:1010E0005F904F903F902F900895FC0182E991E02E
:1010F00091838083CF010E94440708950F931F932B
:101100008C0182E991E0F80191838083C8010E94FB
:101110004407C8010E94420B1F910F9108950F933D
:101120001F938C010E94340782E991E0F8019183BA
:10113000808386E0848382E085831F910F910895E8
:1011400008951F920F920FB60F9211242F933F9381
:101150004F938F939F93EF93FF938091C00082FDF5
:101160001DC04091C60020919602309197022F5FDA
:101170003F4F2F73307080919802909199022817F9
:10118000390771F0E0919602F0919702EA5AFD4F0B
:101190004083309397022093960202C08091C6004C
:1011A000FF91EF919F918F914F913F912F910F90D0
:1011B0000FBE0F901F901895E091EA02F091EB029C
:1011C000E05CFF4F8191919120813181821B930BD3
:1011D0008F739070892B11F00E94A00808951F92C0
:1011E0000F920FB60F9211242F933F938F939F93DB
:1011F000EF93FF932091DA023091DB028091DC02C1
:101200009091DD022817390731F48091C1008F7D5C
:101210008093C10014C0E091DC02F091DD02E6563B
:10122000FD4F20818091DC029091DD0201968F7349
:1012300090709093DD028093DC022093C600FF91B2
:10124000EF919F918F913F912F910F900FBE0F9033
:101250001F901895AF92BF92DF92EF92FF920F937B
:101260001F93CF93DF93EC017A018B01DD24403093
:1012700081EE580780E0680780E0780711F0DD24F0
:10128000D39491E0A92EB12CEC89FD89DD2069F081
:10129000C50108A002C0880F991F0A94E2F7808355
:1012A00060E079E08DE390E005C0108260E874E8CA
:1012B0008EE190E0A80197010E94340C215030404B
:1012C00040405040569547953795279580E120300E
:1012D000380720F0DD2011F0DD24D6CFE889F98928
:1012E0003083EA89FB89208319A2EE89FF89408136
:1012F00021E030E0C9010C8C02C0880F991F0A94CC
:10130000E2F7482B4083EE89FF894081C9010D8CAB
:1013100002C0880F991F0A94E2F7482B4083EE8998
:10132000FF894081C9010E8C02C0880F991F0A9461
:10133000E2F7482B4083EE89FF8980810F8C02C041
:10134000220F331F0A94E2F7209528232083DF9190
:10135000CF911F910F91FF90EF90DF90BF90AF90D2
:101360000895DC011C96ED91FC911D97E05CFF4F08
:101370002191319180819181281B390B2F7330701D
:10138000C9010895DC011C96ED91FC911D97E05C6C
:10139000FF4F20813181E054F040DF01AE5BBF4F51
:1013A0008D919C9111972817390719F42FEF3FEF72
:1013B00007C08D919C91E80FF91F8081282F30E0A4
:1013C000C9010895DC011C96ED91FC911D97E05C2C
:1013D000FF4F20813181E054F040DF01AE5BBF4F11
:1013E0008D919C9111972817390719F42FEF3FEF32
:1013F00010C08D919C911197E80FF91F20818D915C
:101400009C91119701968F73907011969C938E9377
:1014100030E0C9010895DC0191968C919197882361
:1014200039F05496ED91FC915597808186FFF9CF64
:1014300091961C920895CF93DF93EC01EE85FF8582
:10144000E05CFF4F20813181E054F0402F5F3F4F3F
:101450002F733070DF01AE5BBF4F8D919C91119760
:1014600028173907D1F3E05CFF4F80819181E05468
:10147000F040E80FF91F6083EE85FF85E05CFF4FC9
:1014800031832083EE89FF89208181E090E00F8CF9
:1014900002C0880F991F0A94E2F7282B208381E06D
:1014A00089A3EC89FD8980818064808381E090E05C
:1014B000DF91CF9108951092E1021092E00288EE40
:1014C00093E0A0E0B0E08093E2029093E302A09367
:1014D000E402B093E50282EB91E09093DF02809307
:1014E000DE0286E592E09093EB028093EA028AE9BD
:1014F00092E09093ED028093EC0285EC90E0909363
:10150000EF028093EE0284EC90E09093F1028093DE
:10151000F00280EC90E09093F3028093F20281EC71
:1015200090E09093F5028093F40282EC90E0909327
:10153000F7028093F60286EC90E09093F902809394
:10154000F80284E08093FA0283E08093FB0287E054
:101550008093FC0285E08093FD0281E08093FE028F
:101560000895CF92DF92EF92FF920F931F93CF9344
:10157000DF937C016B018A01C0E0D0E00FC0D6018F
:101580006D916D01D701ED91FC910190F081E02DFD
:10159000C7010995C80FD91F015010400115110549
:1015A00071F7CE01DF91CF911F910F91FF90EF90D6
:1015B000DF90CF900895DC01ED91FC910190F081D6
:1015C000E02D09950895EF92FF920F931F938C01E0
:1015D000DC01ED91FC910190F081E02D6DE0099529
:1015E0007C01D801ED91FC910190F081E02DC801C2
:1015F0006AE009959C012E0D3F1DC9011F910F91B5
:10160000FF90EF900895CF93DF93EC016115710582
:1016100019F420E030E00FC0DB010D900020E9F765
:101620001197A61BB70BE881F9810280F381E02DA9
:10163000AD0109959C01C901DF91CF910895EF9209
:10164000FF920F931F937C010E94030B8C01C70133
:101650000E94E30A080F191FC8011F910F91FF9004
:10166000EF900895CF93DF930E94E60B0E94F60659
:10167000CCEDD8E00E9431072097E1F30E94DC080E
:10168000F9CF08950E94CB0108951F920F920FB6D3
:101690000F9211242F933F938F939F93AF93BF93F8
:1016A0008091040390910503A0910603B091070374
:1016B000309108030196A11DB11D232F2D5F2D37F9
:1016C00020F02D570196A11DB11D20930803809392
:1016D000040390930503A0930603B093070380913E
:1016E000000390910103A0910203B09103030196BE
:1016F000A11DB11D8093000390930103A0930203E9
:10170000B0930303BF91AF919F918F913F912F9120
:101710000F900FBE0F901F9018959B01AC017FB7E3
:10172000F8948091000390910103A0910203B0917D
:10173000030366B5A89B05C06F3F19F00196A11D74
:10174000B11D7FBFBA2FA92F982F8827860F911D13
:10175000A11DB11D62E0880F991FAA1FBB1F6A95CA
:10176000D1F7BC012DC0FFB7F89480910003909190
:101770000103A0910203B0910303E6B5A89B05C045
:10178000EF3F19F00196A11DB11DFFBFBA2FA92F80
:10179000982F88278E0F911DA11DB11DE2E0880FA3
:1017A000991FAA1FBB1FEA95D1F7861B970B885E6E
:1017B0009340C8F2215030404040504068517C4F27
:1017C000211531054105510571F60895789484B5C8
:1017D000826084BD84B5816084BD85B5826085BD2D
:1017E00085B5816085BDEEE6F0E080818160808313
:1017F000E1E8F0E0108280818260808380818160F6
:101800008083E0E8F0E0808181608083E1EBF0E0BC
:10181000808184608083E0EBF0E080818160808360
:10182000EAE7F0E080818460808380818260808349
:101830008081816080838081806880831092C10074
:10184000089597FB092E07260AD077FD04D02ED0E5
:1018500006D000201AF4709561957F4F0895F6F731
:10186000909581959F4F0895A1E21A2EAA1BBB1B4C
:10187000FD010DC0AA1FBB1FEE1FFF1FA217B3075C
:10188000E407F50720F0A21BB30BE40BF50B661F72
:10189000771F881F991F1A9469F760957095809536
:1018A00090959B01AC01BD01CF010895AA1BBB1B04
:1018B00051E107C0AA1FBB1FA617B70710F0A61B50
:1018C000B70B881F991F5A95A9F780959095BC0171
:1018D000CD010895EE0FFF1F0590F491E02D0994BE
:1018E0009111089581568A5108F4805285580895BF
:1018F00011E0CCEED1E004C0FE010E946C0C2296F7
:0A190000CE3ED107C9F7F894FFCFDF
:10190A00004142432D3132332D2F7C5C00002000F0
:10191A000D030000000000002A023002410B410BB7
:10192A00410B410B410B410B410B410B410B410B4D
:10193A00410B410B410B410B3902000000008E02A2
:10194A00B4069402A00284034E055205E702F3028C
:10195A008C03CA030104B70456055A057E053902E9
:10196A003D03610331037B069B065E0562050000A9
:10197A0000004A076C07410B410B410B410B620700
:10198A0065075007530756075A075E07680700009E
:10199A00000075087E08190875079F07A1076207E6
:1019AA0065075007530756075A075E07680700007E
:0E19BA0000001B0AB10AB109E209C2090B0ABA
:00000001FF
